:020000041000EA
:1000000000B5324B212058609868022188439860DF
:10001000D860186158612E4B002199600221596106
:100020000121F02299502B49196001219960352056
:1000300000F044F80222904214D00621196600F024
:1000400034F8196E01211966002018661A6600F04E
:100050002CF8196E196E196E052000F02FF8012189
:100060000842F9D1002199601B49196000215960AB
:100070001A491B48016001219960EB211966A021F2
:10008000196600F012F800219960164914480160C1
:100090000121996001BC002800D000471248134993
:1000A000086003C880F30888084703B5996A0420EC
:1000B0000142FBD001200142F8D103BD02B5186610
:1000C0001866FFF7F2FF186E186E02BD00000240BE
:1000D000000000180000070000035F00212200005C
:1000E000F4000018222000A00001001008ED00E03C
:1000F00000000000000000000000000074B24E7A12
:1001000000200420F7010010C3010010C5010010F9
:10011000C1010010C1010010C1010010C101001097
:10012000C1010010C1010010C1010010C701001081
:10013000C1010010C1010010C9010010CB01001065
:10014000CD010010CD010010CD010010CD01001037
:10015000CD010010CD010010CD010010CD01001027
:10016000CD010010CD010010CD010010CD01001017
:10017000CD010010CD010010CD010010CD01001007
:10018000CD010010CD010010CD010010CD010010F7
:10019000CD010010CD010010CD010010CD010010E7
:1001A000CD010010CD010010CD010010CD010010D7
:1001B000CD010010CD010010CD010010CD010010C7
:1001C00000BE00BE00BE00BE00BE00BEEFF3058054
:1001D000103800BEF2EB88711872001040720010E7
:1001E0003802001090A31AE71E481F49086006C88D
:1001F00081F3088810471D480068002801D019487D
:10020000F3E70DA40ECC002902D000F012F8F9E7B4
:100210001749184A002000E001C19142FCD116495B
:100220008847164988471649884700BEFDE701C937
:1002300001C29A42FBD3704740720010C0000020F8
:10024000280B0020A87C00100000042000000420DF
:10025000A87C001000100420001004200000000002
:10026000704700000000000008ED00E0000000D032
:10027000280B0020D80F00205D450010F507001066
:1002800019450010F8B5C04610B5064C2378002B70
:1002900007D1054B002B02D0044800E000BF01232A
:1002A000237010BDA80C002000000000285D001085
:1002B000044B10B5002B03D00349044800E000BFF5
:1002C00010BDC04600000000AC0C0020285D0010EE
:1002D000F0B5C64600B582B0804602F001F80600CF
:1002E0000F001D490A68002334003D00A41A9D41F7
:1002F000002D03D109D1194B9C4206D9164B1E6023
:100300004346082B10D0072B16D0002D03D107D160
:10031000134B9C4204D9104B1E6043461B2B13D039
:1003200002B080BCB846F0BD6B46D91D01230B70EE
:100330000C4802F0A7F8E8E76B46D91D02230B70C2
:10034000084802F09FF8E0E76B46D91D03230B70C5
:10035000044802F097F8E3E7A00D00201027000002
:10036000204E0000880D002010B50B490B4804F00A
:100370000FFD0321102000F0A1FE0321112000F049
:100380009DFE00220121102000F0B2FE002201217A
:10039000112000F0ADFE10BDA0860100D8020020A3
:1003A00010B5040000F0A4FF0123A340D0221206E0
:1003B000536210BD10B52E4B1B78002B37D02D4843
:1003C00003680733D917490F5B18072213405B1ADC
:1003D0000360284B1B681901274A8A58002A31D02C
:1003E000D0221206042151611901234A5218526881
:1003F000002A2CD0D02212060821516119011E4A70
:1004000052189268002A27D0D0221206402151614A
:100410001B01194AD318DB68002B22D0D0231B06FE
:10042000802292015A61012001F06AFE10BD11483C
:1004300003680133D917490F5B18072213405B1A71
:100440000360C6E7D022120604219161CCE7D022D6
:10045000120608219161D1E7D02212064021916154
:10046000D6E7D0231B06802292019A61DBE7C046C3
:10047000D40F00207C0D0020D45F001070B50B4C11
:100480000721206802F016FB01312160084B1B6830
:10049000DA1707251540ED18ED10002402E0FFF7EC
:1004A00089FF0134AC42FADB70BDC046780D0020F4
:1004B000C40F002070B5051E05D0144B01221A7020
:1004C0000124002603E00024FBE72E001400002E88
:1004D00019D1FFF76FFFD0231B065B6880225205FE
:1004E00013401A00511E8A41D2B2002D03D0002BB6
:1004F00001D0002CE9D0002DE8D1002BE6D1002C52
:10050000E4D00126E2E7300070BDC046D40F0020E1
:1005100010B5040000F0ECFE0123A340D022120627
:10052000936200220121200000F0E2FD10BD10B511
:10053000040000F0DDFE0123A340D0221206536226
:1005400010BD70B50C0001258540D02636067561BA
:10055000080001F0D5FDB561200001F0D1FD70BDAE
:1005600001238340D02212065361704700B583B047
:100570006B46D91D054801F08AFF002804D06B4660
:1005800007331B78032BF3D103B000BD880D002087
:1005900070B50025002403E0032001F0B1FD033411
:1005A000542C05D8FFF7E2FF0028F5D00500F3E74B
:1005B000280070BD01238340D0221206936170474A
:1005C00070B506000D000120FFF774FF0D4B0022EF
:1005D0001A70002402E0FFF7EDFE0134CE2CFADDA4
:1005E000FA20C00001F08CFD002402E0FFF7E2FEDB
:1005F0000134EA17072313405B19DB107343A3424E
:10060000F4DC70BDD40F002030B583B06B46DD1D27
:1006100001222900074800F0BDFA6B469C1D01220B
:100620002100054800F0B6FA2B781B022078184309
:1006300003B030BD030800000408000010B582B00C
:100640006B46D91D030A0B706B469C1D98710122E5
:10065000044800F069FA01222100034800F064FA1E
:1006600002B010BD030800000408000070B5174B6D
:1006700000221A600020FFF7E1FF0020FFF71AFFB9
:10068000002600240025002E01DD002416E0FFF7DF
:1006900091FED0231B065B6880225205134019008F
:1006A0004A1E914122000C000135002AEFD0002B98
:1006B000EDD10136E7E7FFF77DFE0134812CFADD4D
:1006C000024B1D60A8B2FFF7B9FF70BDC40F002038
:1006D00010B52B4C012221002A4800F05BFA237848
:1006E000002B01D1002010BD274804F05AF8244BFC
:1006F0001B78012B05D0042B12D0022B1DD000201B
:10070000F1E72249224800F01BFBFFF77DFF00289C
:1007100001D10020E7E71F4804F043F80420E2E796
:100720001D491B4800F00CFBFFF76EFF1B4B1860C8
:100730001B4B01221A700420D5E71A49144800F017
:10074000FFFAFFF761FF0100144B1860164B984247
:1007500012D0164804F054F8154C01222100154817
:1007600000F018FA0D4B19682078FFF729FF12489E
:1007700001F0C6FC0220B6E7104804F012F8EBE7DF
:10078000D00F002006080000285D0010585D001002
:10079000380D00208C5D0010A45D0010C40F0020F7
:1007A000D10F0020D45D0010FFFF0000245E001078
:1007B000D30F002002080000B80B00000C5E0010F0
:1007C00010B5034908700122024800F0ADF910BDD0
:1007D000D00F00200608000000B583B06B46D91D7D
:1007E000034801F054FE0028F8D103B000BDC04614
:1007F000880D002030B5E1B000249B4BDC62022064
:10080000FFF7CEFD0320FFF7CBFD0620FFF7C8FD65
:100810000D20FFF7C5FD1C2000F06AFDD0231B064C
:10082000802252059A62002201211C2000F060FC07
:100830000820FFF76DFE0720FFF76AFE1B20FFF779
:1008400067FE1620FFF773FE96218901874801F0A5
:1008500099FE0221042000F031FC0221052000F065
:100860002DFCFFF781FD03F097FF8149022000F086
:10087000F7FB804A804920A800F0F2FA00F08CFDD6
:100880000300642201217D4801F0EAFD7C4B012236
:1008900004211B2000F0C8FC01220421082000F0E4
:1008A0008FFC01220421072000F08AFC7F236B4487
:1008B0001C70744B1C7000F091F90122724973484E
:1008C00000F068F9FFF704FF04009EE0042C00D05C
:1008D00094E00420FFF774FF1620FFF741FE8DE03F
:1008E0000020FFF76DFFFA2149001620FFF729FECF
:1008F00084E0674803F055FF04247FE00220FFF7FF
:100900005FFF1620FFF756FE624803F04AFF624B76
:100910001D78002D2AD1002528E064211620FFF73C
:1009200010FE0134042CF8DD6C1C22005B49684683
:1009300003F09CFD22005A4910A803F097FD594A84
:1009400010A920A800F08CFA6946574800F0F8F981
:10095000684603F026FF6B1C4F490B700122534879
:1009600000F0E2F8524801F0CBFB0135062D21DC06
:10097000FFF732FFFFF782FDFFF70AFE002817D0CE
:100980006C1C22004B49684603F070FD22004A4966
:1009900010A803F06BFD434A10A920A800F060FAEC
:1009A0006946414800F0CCF9684603F0FAFED2E708
:1009B0000024B7E700F012F93A4A404920A800F0B5
:1009C0004FFA00242F4B1C70334B1C700020FFF794
:1009D000F7FE3B4B1C6000F056F90FE07F236B44A1
:1009E0001B78012B09D0022B08D1042C01D1022441
:1009F00004E0344803F0D5FE00E001247F2169447F
:100A00001E4801F044FD0028E8D1022C00D175E712
:100A100000D95BE7002C00D162E7012CEED1012068
:100A2000FFF7CEFE284803F0BCFE164B1B78002BC8
:100A300000D05EE71C4C2549200000F081F9FFF74B
:100A400015FEFFF7C9FE174A214920A800F008FA51
:100A50002049200000F074F91F4803F0A2FE094B62
:100A600001221A700424C9E70040054000800340B9
:100A700020A10700402C4206545E0010880D002083
:100A8000D1020010D10F0020D00F00200608000076
:100A9000E45E0010105F0010D30F00205C5F0010B8
:100AA0007C5F0010404B4C00380D00200208000015
:100AB000B80B00001C5F0010385F0010A45F00102E
:100AC000C40F0020C05F0010645E0010705E001054
:100AD0007C5E00109C5E0010B05E001070B50400DB
:100AE0000B4810E0020A23785A40130919005140BC
:100AF0000602080300B2704000B24A01504048406C
:100B000080B2290001344D1E0029EBD170BDC046D2
:100B1000FFFF000010B5FFF7E1FF002801D1013011
:100B200010BD0020FCE70000F0B5C64600B584B05B
:100B300002AF88461500030A3B717871961C1300BA
:100B40000933DB08DB006A46D31A9D4602AC022259
:100B5000391D200002F0F0FB0A2068442A004146BB
:100B600002F0EAFB002300933300220050210848E2
:100B700004F044F90400052001F0C2FAA01B43422E
:100B80005841C0B2BD4602B080BCB846F0BDC046B8
:100B9000D802002030B585B00D001400030A6A4663
:100BA0001373507301230093013303AA50210A48A1
:100BB00004F024F9022802D0002005B030BD002343
:100BC000009323002A005021034804F023F9001B5E
:100BD00043425841C0B2F0E7D802002010B590B0AF
:100BE000002409E0164803F0DCFD6A4621001548A0
:100BF00003F006FE4034A4B2F823DB009C421CD86C
:100C0000402269462000FFF7C5FF002812D06B463E
:100C10001B78002BEED03D236A46D35C002BE9D134
:100C200040216846FFF776FF0028DBD0064803F036
:100C3000B8FDDAE7054803F0B4FD10B010BDC046BA
:100C40005C60001068600010546000108C60001040
:100C500030B591B00500002401E04034A4B2F8237F
:100C6000DB009C420CD8402269462000FFF792FF2F
:100C70000028F2D06B461B78002BEED12C8000E0D0
:100C8000002011B030BD10B5002406E00122002183
:100C90002000FFF749FF4034A4B2F823DB009C4258
:100CA000F4D910BD70B592B005000C004620684420
:100CB000FFF7CEFF002835D0002601963C22002108
:100CC00002A802F033FB2200290001A802F034FB45
:100CD0006B4604331E553E211800FFF7FFFE020A43
:100CE0003E2369460431CA540133C85407336B4468
:100CF00018884022FFF718FF041E10D046226A44CD
:100D0000138840339BB21380F822D200934210D84C
:100D100080200222462169440001FFF705FF2000E0
:100D200012B070BDFFF7AFFF46236B4400221A805C
:100D3000C2E7FFF7A8FF46236B4400221A80E7E7CB
:100D400070B504000E00080004F0D8FB0500020096
:100D50003100200002F0F0FA29002000FFF7A2FF86
:100D6000002803D0034803F01CFD70BD024803F0C7
:100D700018FDFAE7A0600010C060001030B583B025
:100D800004000D00A36910210A001A4019420BD17A
:100D90006B46D81D002AF5D1A369DB06FCD4236875
:100DA000037001320130F5E7280004F0A7FB0022B0
:100DB00003E02B78236001320135904203D9A36907
:100DC0009B06FCD4F5E703B030BDF0B583B004005A
:100DD0000E00170004220021380002F0A7FA0025B7
:100DE0000DE06B4607331B780A2B06D00D2B04D081
:100DF0004E2D04DC7B55013501E0002D12DC310065
:100E0000200001F001FC00280FD000226B46D91D04
:100E1000002AE6D1A369DB06FCD423680B700132FB
:100E20000131F5E77D1900232B7003B0F0BD000000
:100E3000F8B5060015001C00084F3800FFF79EFFAC
:100E4000320021003800FFF7C0FF041E01D020004F
:100E5000F8BD280003F0A5FCF9E7C0460080034078
:100E6000F8B5DE4657464E464546E0B581468A46C9
:100E700090461A48FFF782FF01F032FA06000F0091
:100E800001F02EFA04000D004A4641461348FFF7D0
:100E90009CFF8346002812D1A41BBD414346002D70
:100EA00001D1A342ECD80E4803F07BFC00239B4603
:100EB0005846F0BCBB46B246A946A046F8BD4946D6
:100EC000084803F09DFC0849484604F089FC0028C6
:100ED000E2D05146054803F093FCE9E70080034067
:100EE0005862001010620010206200102C62001086
:100EF000F0B5D6464F464646C0B58EB082460E0087
:100F0000914638221649684602F016FA00239846A0
:100F100002E001239C46E0444346062B1ED80025F0
:100F2000B542F6DA4346DB006A469F586B445A687E
:100F30004B4639005046FFF77BFF041EE9D10135CF
:100F4000AE42EDDC32003900064803F059FC2000C7
:100F50000EB0E0BCBA46B146A846F0BD0124F6E7A3
:100F60003864001088620010F8B5DE4657464E46D9
:100F70004546E0B50400894692469B4600239846C4
:100F80003FE0220059462B48FFF71FFF051E18D0EF
:100F90002100294803F034FC2849200004F020FCFB
:100FA000002818D12649200004F01AFC002812D18C
:100FB0002449200004F014FC002818D1224803F032
:100FC000F0FB01F08DF9801BB9415B46002911D17E
:100FD0008342D6D80EE01D4803F0E3FB002D24D059
:100FE0002800F0BCBB46B246A946A046F8BD18484A
:100FF00003F0D7FB01239C46E0444146154803F02B
:10100000FFFBD0450FDA144A0421484603F042FAA8
:1010100049460848FFF7B2FE01F062F906000F00EA
:1010200000200021D1E70025D8E751460B4803F006
:10103000E7FBD5E70080034010620010C862001093
:10104000E06200101C63001048630010F86200109A
:101050003063001058630010BC620010746300100D
:1010600010B5C0B004000A0001006846FFF740FF59
:1010700000280FD10B4803F094FB0B4B22000B49C7
:101080006846FFF771FF002808D1094803F089FB83
:1010900040B010BD074803F084FBEEE7064803F0BC
:1010A00080FBF5E7A063001080C3C901BC6200109B
:1010B00000640010D8630010F862001010B58300BF
:1010C000084A9A18126840245440C0222240064C14
:1010D000A44663441A60C000044B9C4660444160CF
:1010E00010BDC04604C0014004D001400040014092
:1010F00080000C4B9C46604400290ED00823002A37
:101100000DD004221343026853400C221340802266
:10111000520194466044036070470023EFE70022C9
:10112000F0E7C04604C0014070B50400D0231B06A0
:101130001D68AA000C4BD358002B0AD0002803D0FE
:10114000AD00094BEC5070BD08490D2000F020FBAC
:10115000F6E70028F7D0AD00034BE8500022034922
:101160000D2000F0F9F9EEE7FC0C00205112001000
:10117000072303409B00C00899403C308000014B8E
:10118000C150704700400140F8B507000D0016003F
:101190001C00FFF7EDFFFB089B00E4180720384018
:1011A00080008540002E05D080239B019C4664442E
:1011B0002560F8BDC0239B019C4664442560F8E788
:1011C00070B5002A0FD0D0231B061B689D000F4C62
:1011D0002C59202810D40024E40704D49B000C4C84
:1011E0001B59002B0AD0D0231B061B68002B0BD0E9
:1011F000084BFFF7C9FF70BDC440EDE7064B074A37
:10120000BE21074803F08CF9064BF2E7B40D00202D
:10121000FC0C0020304101400065001058650010B2
:101220009C6400100041014070B505000E001400E0
:101230001800FFF779FF220031002800FFF7C0FFF8
:10124000002C00D170BD01210D2000F049F9F9E713
:10125000F0B5D6464F464646C0B5D0231B061F689C
:10126000BA001F4BD3589846002F03D01D4B994608
:10127000002626E01C4B9946FAE7EB40DB0714D525
:1012800024090135002C1BD033000833AB4217D999
:101290000F231A00224092462342F1D0BB00134A8A
:1012A0009B58202DE9D40023E8E751462800FFF79A
:1012B0005FFF4346002BE3D051462800C047DFE7DD
:1012C00008361D2E06D8F30808339B004A469C5862
:1012D0003500D7E7E0BCBA46B146A846F0BDC046E7
:1012E000FC0C00203041014000410140B40D0020C1
:1012F00010B501238340D022120693629361052129
:10130000FFF7DCFE10BD00000FB400B583B0084845
:1013100003F047FA049B002B07D005A901911800A0
:1013200003F04EFA034803F03CFA012003F0D6F82C
:1013300070650010C4620010EFF3108072B6034BAA
:101340001B68002BFBD0BFF35F8F70472C0100D0D0
:10135000BFF35F8F024B00221A6080F31088704742
:101360002C0100D0F8B506000C001500FFF7E4FFD3
:10137000E308F718F15C07222240012393400B4257
:1013800005D1DBB20B433B70FFF7E2FFF8BD210054
:101390002800FFF7B9FF0000054A1078431CDBB2B4
:1013A0001370172B02D9130010221A707047C04611
:1013B00038020020002307E0054A9A189200BFF384
:1013C0005F8F0021116001331F2BF5D97047C04694
:1013D00040000034074B9B68103080001950BFF369
:1013E0005F8FBFF35F8F044B0021196082F3108879
:1013F0007047C04600ED00E0240100D0004870476F
:1014000000E400E010B5FFF7F9FF002302E0034A13
:1014100004C00133072BFAD910BDC04680808080FC
:1014200010B5091A081F0B4B9C4661440A4A9142A9
:1014300008D8C30706D440104005400D074B184399
:1014400080B210BD0221064B064AFF31064803F068
:1014500067F8C046FC070000FE0F000000E0FFFF39
:1014600080650010FC670010B065001010B5091A07
:1014700004394C08090B08D14905490D064A1143A6
:101480000180064B2343438010BD0A21044B054ACB
:10149000FF31054803F044F800F0FFFF00F8FFFFBC
:1014A00010660010D8670010B0650010012383405B
:1014B000034A10681840431E9841C0B27047C046A6
:1014C00000E100E0002A05D0044BC02252009950F0
:1014D00019607047014A8023D150FAE700E100E02B
:1014E00010B50A001F230340012199404009FFF76E
:1014F000E9FF10BD024B9B6810308000C058704758
:1015000000ED00E070B504000D00EFF3108672B638
:101510000C4B1B68002BFBD0BFF35F8F2000FFF745
:10152000E9FF094B984201D0A84205D132002900B9
:101530002000FFF74FFF70BD044B054AE12105482D
:1015400002F0EEFF240100D0CD0100102066001053
:1015500030680010B0650010F0B5DE4657464E46C4
:101560004546E0B589B0814601911500EFF3108B37
:1015700072B6754B1B68002BFBD0BFF35F8F734BAC
:101580000027DF57002F3FDB7C00E419A4007048E0
:1015900024180622A2566D4B1A706E4B9A684B4661
:1015A00010339B00D35898461B1A2F2B3AD96A4BFD
:1015B000984530D105AE694B33807B009A46D819E7
:1015C0008000634B9846404402306549FFF728FF8E
:1015D0007080644BB380FF23B371F571019B079357
:1015E0005744BF0047440ECE0EC701231C43A046FC
:1015F0005A4641464846FFF7EDFE09B0F0BCBB46EF
:10160000B246A946A046F0BD6E21574B574AFF315E
:10161000574802F085FFBA21564B544A49005448B6
:1016200002F07EFF012342469A439246101A0C2193
:1016300001F068FA00290FD153460026DA79AA4250
:1016400012D90621595600290DDB4A005218920082
:101650001E003F4B9B18F1E78621474B434AFF3161
:10166000434802F05DFF1E00002E3BD005AB434A0D
:101670001A80813A5A800623F3560293002B17DA18
:101680003F4805AB9A469880029A9A71DD71019A9B
:101690000792301D2100FFF7C3FEB080B7717B00B9
:1016A000DB199B002A4FFF18534607CB07C79FE75C
:1016B0007800C0198000264BC0180430321DB38852
:1016C000D90A1C2907D15B05591502314900511867
:1016D000FFF7A6FED5E710212A4B2B4AFF312448FD
:1016E00002F01EFF05AE1D4B33807B000293D8191C
:1016F0008000174A9046020042440392901C184909
:10170000FFF78EFE7080039A101D5146FFF788FE8A
:10171000B0801E4B52464146521A524153431B0D54
:10172000B371F571019A0792029B9C466744BF0012
:1017300047440ECE0EC7114B52461380813B538057
:1017400001231C43A04653E7240100D0D20F002000
:101750003C02002000ED00E0CD01001000A1FFFFE1
:101760006C02002001BDFFFF5866001018680010D1
:10177000B065001080660010A866001001480000E7
:1017800001BD00002C67001008680010AAAA000024
:10179000F0B5CE46474680B583B006000D00EFF3A6
:1017A000108872B6564B1B68002BFBD0BFF35F8FBF
:1017B000544B9A6834001034A300D758524B9F42C0
:1017C00007D0AF4200D198E00197504BFB1A2F2B66
:1017D00009D9424639003000FFF7FCFD03B0C0BC18
:1017E000B946B046F0BD3000FFF760FE81460021EB
:1017F0003000FFF775FEBFF35F8FEFF3058100291F
:1018000001D08C4211D10123019C9C430022A3688A
:101810009D4212D00622A256002A0DDB53009B18CF
:101820009B002200394CE418F1E7F421384B394A87
:10183000FF31394802F074FE22009D4257D106253F
:101840006557002D39DB6B005B199A002F4B9B18F5
:101850009A68A260DA79E27106229A56A2719B799F
:101860005BB2002B0FDA2D48A0806B005B199B0048
:10187000264AD3182A4A11789971157049463000C2
:10188000FFF72EFEA5E7201D6B005B199B001F4A8A
:101890009B181A1D9B88D90A1C2907D15B055B156B
:1018A000023359005118FFF7BBFDDDE710211D4B36
:1018B0001D4AFF31184802F033FE002912D1002AD8
:1018C0000ED0FF239371194B9380154A1378A3719F
:1018D000174B0E49641A644163431B0D1370CDE727
:1018E000094FF2E7201D1349FFF7C0FDC6E7124B71
:1018F000084A1249084802F013FE034F69E7C04640
:10190000240100D000ED00E0CD0100103C020020D9
:1019100044670010E8670010B065001001BD0000CA
:10192000D20F00202C6700100868001001BDFFFFD7
:10193000AAAA000076020020786700103502000095
:1019400070B5012101432C4BCB1A2F2B28D8EFF374
:101950000583002B2AD0EFF3108C72B6274A126849
:10196000002AFBD0BFF35F8F254A0400224D641B81
:1019700064416243120D54B2224A92689B00D258CD
:101980008A4219D00022032A30D853009B189B00AA
:101990001949CB189B795BB2A3421DD00132F2E703
:1019A000194B1A4A1A491B4802F0BAFD1A4B174A3A
:1019B0001A49184802F0B4FD124A92681849D150E9
:1019C000184B1A7882711C70BFF35F8F0B4B00228B
:1019D0001A608CF3108870BD0D00530099188900AF
:1019E0006918FF268E71104A8A80E9E70F4B074A73
:1019F0000F49084802F094FD3C020020240100D069
:101A0000AAAA000000ED00E080670010BC6700108B
:101A10006E020000B0650010A8670010710200009F
:101A2000CD010010D20F002001BDFFFFB4670010F0
:101A300082020000024B9C466144890001607047AD
:101A40004000003410B50400FFF7A6FC01002000A0
:101A5000FFF7F0FFFF232371BFF35F8F10BD10B5B9
:101A60000400FFF799FC01002000FFF7E3FFFF23CC
:101A7000237100236371BFF35F8F10BD10B50D4C50
:101A800009E00D4B0D4A1A210D4802F049FD2000D6
:101A9000FFF7D8FF08340B4B9C4209D22368002B78
:101AA000F5D0012BEDD12000FFF7D9FF0834F2E784
:101AB00010BDC046200B00204C680010406900108B
:101AC0006C680010280B00200004084370470000D9
:101AD0000A4B1A68EFF3108172B61368002BFCD022
:101AE000BFF35F8F054B1B68BFF35F8F00221A6047
:101AF00081F3108840BF002000217047C00F0020F4
:101B0000F0B5DE4657464E464546E0B585B0EFF3A4
:101B1000058303221A4093469200AE4BD358984651
:101B20001B785B4507D101235A4693401A00039363
:101B3000A94B1A6012E1A94BA94A9221A94802F0C7
:101B4000EFFC5B004B44DB004246526992469A44EC
:101B500053469E68DF68A44800F090FB801BB941A3
:101B6000002900DA04E1002F60DB53461C699F4B1B
:101B70009C4244D043460820185E5346598889B297
:101B8000FFF7A2FF53465969A04704000D00230048
:101B90002B434BD0002D3CDA30003900001BA9410B
:101BA000009001915346009801999860D9600025F2
:101BB0005D5F002D00DADBE043465C696B005B197A
:101BC000DB00E3189A68DB68801A9941002900DA83
:101BD000CEE043461D81474608370023FE5E002EB7
:101BE0001FDB7500AD19ED006519009A019BA8680F
:101BF000E968121A8B41002B13DB2F00EDE75346E7
:101C00005C6920002369984700280FD06568246824
:101C1000BDE7754800F032FB001969410090019161
:101C2000C0E753461E804B463B80A1E0534600224E
:101C30009B5E424613811269EFF3108372B61168FE
:101C40000029FCD0BFF35F8F42460221525E51460D
:101C50000A804246494651801269BFF35F8F0021D6
:101C6000116083F3108883E043461A69EFF3108113
:101C700072B61368002BFCD0BFF35F8F43469B887E
:101C80001BB2994601235B42424693801369BFF31E
:101C90005F8F00221A6081F3108818E0260000236D
:101CA000F55E002D0BDB6C006419E4003C19009A12
:101CB000019BA068E168121A8B41002BEEDA4B46BB
:101CC0003380634600229B5E994663461D804B46E7
:101CD000002B53DB43465F694B465B004B44DB0004
:101CE0009C46BC446346DC689B680093019446466E
:101CF0000836D4E7002342469371414608314346F3
:101D00000820185E11E001225242D317A260E3605E
:101D1000434608229B5E834206D00D80434608223C
:101D20009B5E2380434618812800431C2AD04346EB
:101D30005A6943001B18DB00D418D55E63881BB2B8
:101D4000002BE0DB2100EFE76B1C2BD1264800F0D5
:101D500095FA241A8D41002D34DC31D0224B039AA0
:101D60005A63434608229B5E9946002B00DBE8E657
:101D700043469B881BB2002B00DB75E743469B79EB
:101D8000002BB7D1434608229A5E002A1ADB530083
:101D90009B18DB0042465269944663449C68DD68A8
:101DA000631CD1D0104B996A601A5A4604329200D3
:101DB000D3585B1A9842C9D213000B4A9C50C5E70E
:101DC000002CCBD040BF05B0F0BCBB46B246A94604
:101DD000A046F0BDA40D00203C70054054690010E1
:101DE000686A00108069001000400540011B001067
:101DF000F8B5CE46474680B50600884691461F0096
:101E0000C160FFF7C9FA1B4B9C46604480003061FB
:101E10004B463370BBB27381D022120612787270B7
:101E2000012252423281B2809B187380002406E066
:101E3000631E65002D19ED00726953530134BC42D5
:101E4000F6D34B469A000C4BD65001244B469C408F
:101E500043461C6209494846FFF754FB01214846A6
:101E6000FFF73EFB064941440C60C0BCB946B04692
:101E7000F8BDC04640000034A40D0020011B001036
:101E80003820000010B5064B1B69002B01D0044818
:101E900010BD044B044A6521044802F041FBC046D2
:101EA00084020020DC690010506A00108069001074
:101EB000F0B5C64600B504000069EFF3108C72B6A9
:101EC00001680029FCD0BFF35F8F0221665E7500B8
:101ED000AD19ED00616988464544002E02DB002003
:101EE000295E61802169BFF35F8F002008608CF359
:101EF0001088002E2EDB0699296107996961AA6076
:101F0000EB606B8801335B04590C002B00D101217D
:101F100069803000FFF7D8FD2269EFF3108172B6B7
:101F20001368002BFCD0BFF35F8FA3882B80A680A3
:101F30002369BFF35F8F00221A6081F31088E36882
:101F4000217801328A4005498C4663441A6080BC7E
:101F5000B846F0BD01204042F9E7C0463C200000F1
:101F600070B582B0060014001D0008AB1B78002B72
:101F700007D100F0B5F922002B00121A8B41002B7B
:101F80000ADB079B0193069B009322002B00300085
:101F9000FFF78EFF02B070BD0020FBE710B5030015
:101FA00008145A8990422FDA42001218D200586958
:101FB000844662441C69EFF3108C72B620680028D6
:101FC000FCD0BFF35F8F508880B20904090C8842AF
:101FD00012D000201A69BFF35F8F002111608CF3CB
:101FE0001088002811D0DA681B7801319940074B1E
:101FF0009C466244116008E00549084380B2508065
:1020000001229A710120E5E7002010BD3C2000006C
:102010000080FFFFF0B585B006000F00EFF30583E9
:10202000002B1AD106246442E517A4197D418D4284
:1020300002D803D1844201D90024002500F050F9D0
:1020400022002B00121A8B41002B0BDC08D0300031
:10205000390000F057F905B0F0BD1C48FFF754F9FE
:10206000002AF4D0FFF70EFF002302930193184BD0
:10207000009322002B00FFF773FF002818DAE6E731
:10208000002300E00023002BE1D1124B1A68EFF38C
:10209000108172B61368002BFCD0BFF35F8F0D4B1D
:1020A0001B68BFF35F8F00221A6081F3108820BF86
:1020B000094B5B6A9D42E5D80749896AA14203D270
:1020C0009D42DDD00123DEE70123DCE7006A00103A
:1020D000D11A0010C00F00200040054070B5040068
:1020E0000D0000F0FDF800196941002902DBFFF73F
:1020F00091FF70BD012040420049F8E7FFFFFF7FDC
:1021000010B5FA2292000023002101F08FF8FFF7AA
:10211000E5FF10BD70B584B005000C00EFF305833A
:10212000002B12D03E4B5B6A8B4209D33C4A926A29
:10213000824208D28B4201D0012002E0002000E060
:10214000002004B070BD0120FBE7FFF79BFEC168D3
:1021500003788A6A2E00A81A04339B005B589B1AE6
:10216000984212D320BF2E4B5B6A9C4209D82C4A5E
:10217000926A954207D99C4201D00120E1E70020F4
:10218000DFE70020DDE70120DBE7FFF77BFE002330
:1021900002930193234B00932A002300FFF7E0FEF4
:1021A000051E0BDD1E4B5B6A9C421BD81C4A926AC3
:1021B00096422CD99C4213D0012314E0184B5B6A41
:1021C0009C4209D8164A926A964207D99C4201D08D
:1021D0000120B6E70020B4E70020B2E70120B0E715
:1021E000002300E00023002B00D120BFFFF74AFEB0
:1021F0002900FFF7D3FE0A4B5B6A9C420BD8084AC2
:10220000926A964209D99C4203D0012099E70123A2
:10221000E9E7002095E7002093E7012091E7C04619
:1022200000400540D11A00100048704700400540AA
:1022300010B50B4B1B69002B04D00A210948FFF78E
:10224000F9FB10BDFFF7F0FF0400032100F00CF8CC
:102250001023032221000248FFF7CAFDEDE7C04624
:1022600084020020C00F002010B5024A0248FFF788
:1022700079F810BD806A00100C0D00200200436A3E
:10228000906A1900536A9942FAD17047416A00E096
:10229000416A9942FCD300E0416A994202D1816AC5
:1022A0009142F9D37047F0B5C64600B58046140098
:1022B0001D00FFF7E3FF06000F0022002B0092191C
:1022C0007B41994202D804D1904202D90122524264
:1022D000D3174046FFF7DAFF80BCB846F0BD0000D8
:1022E00010B50248FFF7CAFF10BDC04600400540C8
:1022F00010B502000B000248FFF7D5FF10BDC04625
:102300000040054010B502000B000248FFF7BEFF79
:1023100010BDC0460040054070B5040008000BE049
:10232000002B1AD1002A3BD02368BFF35F8F002512
:102330001D6086F3108820BF2568EFF3108672B603
:102340002B68002BFCD0BFF35F8F238965895B1B53
:10235000E6D5E18901315B18E2E7002808D0E3897E
:102360009D4217D8A28955436368591900F0E4FFCC
:10237000638901339BB2E289934200D900236381D0
:102380002368BFF35F8F00221A6086F3108840BF76
:10239000012070BD074B084A1921084802F0C0F817
:1023A0002368BFF35F8F0021196086F31088100047
:1023B000EFE7C046A46A00101C6B0010C06A001052
:1023C000F8B504000CE0E7899F421AD1002A38D002
:1023D0002368BFF35F8F00251D6086F3108820BF40
:1023E0002568EFF3108672B62B68002BFCD0BFF384
:1023F0005F8F25896389EB1AE5D5E7890137DB19FA
:10240000E1E7BD4217D8A28955436368581900F027
:1024100093FF238901339BB2E289934200D90023C1
:1024200023812368BFF35F8F00221A6086F3108830
:1024300040BF0120F8BD074B074A1921074802F0A9
:102440006FF82368BFF35F8F0021196086F310884F
:102450001000EFE7A46A00101C6B0010C06A0010A7
:1024600070B504000D0016001900FFF7E3FA701CA8
:10247000290000F03FFF6060E681A58100232381F1
:10248000638170BD10B50022FFF79AFF10BD10B533
:102490000022FFF741FF10BD70B5046BE30701D4C4
:1024A000200070BD0B4BC3180B4A1A60456A826A44
:1024B000AD01AD18AD02062000F036F9074900F075
:1024C00021FB0100280000F01DFB0021FFF710FF99
:1024D000E6E7C04630300000010300004E0E000069
:1024E00070B504000E001500FFF7D6FFE16A4E40FC
:1024F0003540024BE3181D60206370BD2C100000B6
:1025000070B505000C00062000F00EF9C000210097
:1025100000F0F8FA0130C60907D00E4B9E4215D8DC
:10252000400834003F26064000E001246C62AE62A1
:10253000002200212800FFF7D3FF062000F0F4F866
:102540008000A101891900F0DDFA70BD0026024C5F
:10255000ECE7C046FEFF0000FFFF0000002909D0A5
:102560000A22064B9C466044434258414000044BBB
:10257000C252704780225200F3E7C0460080FCBF81
:10258000C80F002070B505000C00062000F0CCF844
:10259000002828D0164B9D4226D0162201239340B6
:1025A000144A1360124B9D4220D0162301229A40F8
:1025B000114B1A60114B1B6811009943FAD100218D
:1025C0002800FFF7CBFF21002800FFF799FFEB6AF7
:1025D00070225A407E231340094AAA181360094BFF
:1025E0002B630323AB6470BD1722D7E71723DDE706
:1025F0000080034000E0004000F0004008C00040C0
:102600002C10000001030000064B9A6A8369DB0668
:1026100006D5044B9B6A9B1A8B42F7D9002000E039
:102620000120704700400540F8B5D646474680B5C2
:1026300006000D001700984644002418A400294BFA
:102640009C4664446368089A934200D26260331FD8
:10265000DBB29A46012B2ED980221201C0239B01A6
:10266000E3181A60B300204A9958002907D050692E
:1026700000F048FA431C5800C0180338FDD27F010F
:1026800022685740E022174080235B01E3181F6057
:102690005246012A1AD980239B01E3188022120195
:1026A0001A60089B6360B6000F4B4246F250C0BCF4
:1026B000BA46B046F8BD012DCED10322C0239B01FE
:1026C000E3181A60A368DB07FCD5D8E721686940E6
:1026D00003220A401A60A3680122AA401A42FAD0D3
:1026E000D9E7C04600800040100D0020F0B583B04F
:1026F00005000E0017001800089900F003FA030007
:10270000089A140200943A0031002800FFF78CFF69
:1027100003B0F0BD10B582B0802464000094FFF7D0
:1027200083FF02B010BD00008000014BC05870470D
:10273000100D0020F0B5C64600B504000E001700CD
:102740001D00364800F0DEF98046354BFA18354B4F
:102750009A4238D80100380000F0D4F90200103A4B
:1027600098235B009A4234D86B1E062B37D8069B01
:10277000013B062B33D83F09474536D32D04069B32
:102780001A0315432368002B35DB274B9C4243D0AB
:102790000C2301229A40254B1A60254B1A60254BC9
:1027A0001B6811009943FAD12660A060224BE21801
:1027B000212313602368002BFCDAE56008231360F3
:1027C00080BCB846F0BD1D4B1D4A11211D4801F0CB
:1027D000A7FE1D4B1A4A19211A4801F0A1FE1B4BF6
:1027E000174A1C21174801F09BFE194B144A23215C
:1027F000144801F095FE22683F231340B342C4D130
:10280000A3681B051B0D8342BFD1E368EE22D202F1
:102810001340AB42B9D1D3E70D23BAE7001BB70091
:1028200080E84BD380F8A93200C0024000E00040AD
:1028300000F0004008C0004004300000286B001089
:102840005C6C0010786B0010D86B0010F46B0010FB
:10285000406C001080239B000B43014AD3627047F9
:102860000080054010B5010018231B881422108831
:10287000984710BD10B5010018231B881622108838
:10288000984710BDF0B5C64600B507000E000025FC
:102890000123984600E00135B5420AD2AC003C194C
:1028A0002068FFF7DFFF20600028F4D1002398465E
:1028B000F1E7404680BCB846F0BD0000064BAA22B6
:1028C00012011A602F22DA60044B054A1A60024B8B
:1028D0005B68002BFBDA704700400240006002405A
:1028E00000B0FA0010B5040001E008CC9847024B94
:1028F0009C42FAD310BDC046245D00107047000012
:1029000010B50248FFF7EEFF10BDC046E85C0010AE
:10291000054B064A1A60064B064A1A60064B1A68AF
:10292000044B9343FAD1704700E00040BFCDFBFE5B
:1029300000F00040FE7F3C0008C00040044BDB6C10
:10294000002B03D1034B8022D2021A607047C0468D
:10295000000011504C201150044B054A1A60054BE1
:102960001B68DB43DB01FAD17047C04600F0004032
:10297000FFFFFF0108C00040034B40229A675A67DF
:102980001A67DA667047C04600F0014010B5FEF7DE
:1029900011FD10BD70B5044CA168044DC022280083
:1029A00000F0CAFCA56070BD00ED00E00000002052
:1029B00070B50420FFF7B8FE064900F0A3F8050043
:1029C0000024002C00DD70BDE0B22900FFF742FFBB
:1029D0000134F6E740420F0030B583B0274B0022A8
:1029E0009A67FFF76BFF264B01221A60234B5B6C43
:1029F000012BFBD1234B03221A60204B9B6B012B35
:102A0000FBD10133009304331F4A01211F48FFF714
:102A100091FE052300931E4A01211E48FFF78AFEFE
:102A20001D4B002202210420FFF774FE1B4D2B00DA
:102A3000002201210520FFF76DFE194C2300002222
:102A400000210720FFF766FE230000220021082056
:102A5000FFF760FE8023DB000093230000220021AB
:102A60000920FFF743FE2B00002200210620FFF77C
:102A700051FEFFF79DFF03B030BDC046008000400F
:102A80003CB0004030B00040002F68590080024048
:102A9000008C864700C00240001BB70040597307F6
:102AA000006CDC0201480421014B1847A002002001
:102AB00085280010124A936F9B0815D29066D16644
:102AC000002905D0FFE7FFE7FFE7516F106F704760
:102AD00004B580210906C2175140002800D0C84320
:102AE00003F0F2F8002104BDF0B5146E556E576F77
:102AF000166FFFF7E3FF1466556657671667F0BD5C
:102B0000000000D0114A936F9B0813D210665166E3
:102B1000002905D0FFE7FFE7FFE7516F106F70470F
:102B200004B5002801D00020C04303F0CDF80021F7
:102B300004BDC046F0B5146E556E576F166FFFF7A3
:102B4000E5FF1466556657671667F0BD000000D0B4
:102B500094464A4A926F9208624601D228E0C046E3
:102B6000F0B5464E346E756E776F366F00F020F814
:102B70009446424A14665566576716676246F0BD2A
:102B800094463E4A926F9208624601D254E0C04693
:102B9000F0B53A4E346E756E776F366F00F04CF8C4
:102BA0009446364A14665566576716676246F0BD06
:102BB000002B24DB11D000293EDA00B5C943404286
:102BC00000D1013100F038F8C943404200D1013151
:102BD000DB43524200D1013300BD002AEBD1002873
:102BE00001D1002905D00020C90FC90701D1C04378
:102BF000410800B503F060F80022002300BD00B5D5
:102C000000290ADBDB43524200D1013300F014F803
:102C1000C943404200D1013100BDC943404200D107
:102C20000131DB43524200D1013300F005F8DB43B0
:102C3000524200D1013300BD002923D1002B18D10D
:102C4000002A0CD0BC460D4F38667A66002100235E
:102C5000FFE7FFE7FFE77A6F386F674670470028A6
:102C600001D00748010000B503F026F80022002338
:102C700000BD02000B00002000217047000000D0C2
:102C8000FFFFFFFF002B00D0BFE0130C28D1002A6C
:102C9000E7D080B4114F39667A66FFE7FFE730B4BA
:102CA000040C7B6F396F1B0423433B667A66FFE796
:102CB000FFE7FFE7C04684B27B6F3D6F1B042343F1
:102CC0003B667A66FFE7FFE7C04600232C042D0C25
:102CD0007A6F386F00196941B0BC7047000000D0AE
:102CE000F0B594460025140E01D112020835140FD8
:102CF00001D112010435940F01D192000235D40F95
:102D000001D152000135D40B0134254F7C66254C8E
:102D10003C660E0C93B2FFE7FFE7FFE73C6F6643AC
:102D2000360C7703BE467343DF0B5B04C01AB94110
:102D3000130C7343DB18C91ACE086643360CB6442D
:102D400093B273431F0F1B01C01AB941130C734395
:102D50001F0B1B05C01AB941860D8F023E43664307
:102D6000360C092D24DB520A7243801A7703460A77
:102D70006643360C16235B1BDE40DF40BF196446FA
:102D80006643821B7046043506330100D940A840D3
:102D9000C01900D30131A24206D20023F0BD0000C9
:102DA000000000D0FFFFFFFF121B0130F3D3F1E75B
:102DB00009277F1BFE406446A2B27243801A00D2EC
:102DC0000139220C7243130C1204821A99410B0030
:102DD0007046043513370100F940A840801900D32C
:102DE0000131002B02D1A2420AD2F0BD013000D342
:102DF0000131121BFAD2013BF8D1A24200D2F0BD40
:102E0000013000D30131121BF7E7F0B51C0C00D0E4
:102E100080E00CB400251C0A04D11B02160E3343BB
:102E2000120208351C0B04D11B01160F334312018B
:102E300004359C0B04D19B00960F3343920002355E
:102E4000DC0B02D192185B4101351C0097186441DC
:102E50000134464F7C66464C3C660E0CFFE7FFE7AC
:102E6000FFE7C0463C6F6643360C7703BE4697B219
:102E70007743C01B00D20139C01B00D201399FB279
:102E80007743C91BC91B170C77437E04FF0B801BBC
:102E9000B941CE086643360C0C2D33DBB644120B19
:102EA0001F053A431B0B97B27743C01B00D2013971
:102EB0009FB27743C91B170C77433E043F0C801B1E
:102EC000B941860D8F023E43664329277F1BFE4092
:102ED0000C3D7746AF40BF1930BCA2B2ABB27243D3
:102EE0007343801A9941220C7243130C1204801A06
:102EF000994102000B000137001BA941F9D2781E4D
:102F00000021F0BD0C277F1BFE4077467F0BAF40B2
:102F1000FF19E0E700245D1C07D0144F7D66396679
:102F2000FFE7FFE7FFE7FFE73C6F95B29EB265431F
:102F30006643401BB141150C1E0C654366433604C5
:102F40002F0C3E432D04401BB141994204D2020094
:102F50000B0020000021F0BD01D19042F7D3801A70
:102F6000994101349942F2D3F6E70000000000D005
:102F7000FFFFFFFF48404140484018B4134B5B68D7
:102F8000019308BD18B4114B1B68019308BD94460A
:102F90000F4A926F920805D2624618B40B4BDB6859
:102FA000019308BD0A4AF0B5146E556E576F166F3F
:102FB0006246FFF7F2FF064A1466556657671667C2
:102FC000F0BD18B4014B9B68019308BDBC0D0020F7
:102FD000000000D0FFB550404240504059404B40A7
:102FE000594000E0FFB5154F4C00640D03D0BC42C2
:102FF00004D10C0314D80020090D09055C00640DF0
:1030000003D0BC4204D11C030AD800221B0D1B05AF
:1030100001264B4009D44B4003D58B4200D182425C
:10302000FFBD9942FCD19042FFBD0B43DB18034327
:103030001343F5D0C9434918FFBD0000FF07000046
:1030400000B5FFF7CFFF804100BDC04600B5FFF7D8
:10305000C9FF01D9002000BD012000BD00B5FFF768
:10306000B9FF01D9002000BD012000BD00B5FFF768
:10307000B1FF804100BD012040054A00121804D86C
:103080005A00121801D80020704701207047000034
:103090000021002805D17047C1174840401AFAD0D6
:1030A000C90713B5064B1B6898470CBC441CA240CB
:1030B0001005120B0349091B09051943114310BDE3
:1030C000BC0E00201F04000010B54C00620D8023D0
:1030D000D218DB00D21A5B057E2A10DD9E3A13DA85
:1030E000CC170903490819435242D1406400013406
:1030F0001532202A05DAD0400843604310BD002075
:1031000010BD0846604310BDC80FC018013810BD7F
:1031100018B4024B5B6A019308BD0000BC0D00208F
:1031200010B50148FEF7F0F8686C001070B5132375
:103130001C78012C14D0012C14DC022C02DC1F4A58
:103140001F4B9A641F48FFF78DFB1F4B186070BD23
:1031500099001E481A4A885001331F2BF8D9EAE714
:103160000023FAE71A48FFF785FB05001948FFF727
:1031700081FB023803789B007F2B19DD8022290018
:103180000F4800F0D9F8022CD7D1134B1A88B52379
:103190001B029A4209D1114B1A88114B9A4204D151
:1031A000104B1A88104B9A42C7D00020FEF7ACF89B
:1031B0000E4B0F4A33210F4801F0B2F9F9310010DC
:1031C000BC0D00204C330000BC0E0020213100104B
:1031D000534400005346000054380000D838000023
:1031E000494600009C38000059460000806C0010E1
:1031F000386D0010C46C001007B56046002800D17F
:1032000000BE01880A0A0230DF2AFAD1C9B2820858
:1032100004D3028840880004104300E00068024A9A
:103220005050039007BD0000BC0D002051434343A4
:10323000C9188C46110C83B24B4310B4040C614383
:1032400092B280B2504362431C041B0C001910BCA4
:1032500059411304120CC0185141614470470000D9
:1032600010B50148FEF750F8D061001070B5132377
:103270001E781848FFF7FEFA0500012E11D0012E26
:1032800009DDAB1E1B789B007F2B1DDD80222900F2
:10329000114800F051F81148FFF7E4FA104B18609C
:1032A00070BD542201000C4800F046F8002300E0F5
:1032B00001331F2BE3D89A00074C1259002AF7D18B
:1032C0009A0008481051F3E7074B084A4221084882
:1032D00001F026F953460000C00E00204C330000D8
:1032E000BC0E0020613200104C6D0010F06D00101B
:1032F000806D001070B505000C0001F097FD6C4367
:10330000002804D00419034B9C4200D870BD024829
:10331000FDF7FAFF00000420046E001001480421AC
:10332000014B1847B002002085280010014B1B6894
:1033300018470000B0020020014B5B6818470000EE
:10334000B00200209A4200D288547047704710B5EE
:10335000002802D00B684968984710BD0100002082
:1033600007E083001B185B00501C08601078C01831
:1033700030380A681378303BDBB2092BF1D970473B
:10338000F0B5DE4657464E464546E0B583B0934617
:103390001F000C9B9A460D9C0E9B99460F9B9B070A
:1033A00003D0B8460F00060022E00192A3468846EB
:1033B0004E46B9460700B44207D2551C4B4641461B
:1033C0002020B84701342A00F5E73D004F465C460F
:1033D000019B9B46B1464646B84637002E0007E0A3
:1033E000013C551C5346185D43463900B0472A003E
:1033F000002CF5D135003E0047460F9B9B0707D4B4
:10340000100003B0F0BCBB46B246A946A046F0BDD2
:10341000B0464E46B9462F005D46531BB342EFD22D
:10342000541C4B4641462020B8472200F5E7F0B532
:10343000CE46474680B585B0944698460C9D0D9C77
:103440000EAB1B789946109A119B129EB7071CD49D
:10345000002B0CD0F7070AD54F46002F02D10C37AE
:10346000374204D0013B02E030272F55013494420B
:1034700001D21F2CF8D9F70707D59C4205D21F2C83
:1034800003D830272F550134F5E7F70615D5770512
:1034900005D4002C03D0944224D09C4222D00F9A11
:1034A000102A2BD00F9A102A30D00F9A022A35D02A
:1034B0001F2C02D830222A5501341F2C05D84A4629
:1034C000002A31D02D222A5501340396029301940B
:1034D000009543466246FFF753FF05B0C0BCB946AE
:1034E000B046F0BD621E012C06D00F9F102F01D0F8
:1034F0001400D4E7023CD2E71400D0E7B206D1D4DE
:103500001F2CCFD878222A550134D1E7B206CCD56A
:103510001F2CCAD858222A550134C9E71F2CC7D8F6
:1035200060322A550134C3E7720703D52B222A558E
:103530000134CAE73207C8D520222A550134C4E72E
:10354000F0B5DE4657464E464546E0B593B0814657
:103550008A46089209931CAB10CB1B789B461E9D94
:10356000219B9846002C03D1102342469A43904653
:103570008023DB0046461E4042461A4212D0002CF1
:1035800022D000260EE03033D9B2771C0AAB995511
:1035900029002000FFF7B6FAAC4216D31F2F14D82B
:1035A0003E00040029002000FFF7ACFACBB2092B43
:1035B000E9D94246920605D54121C918C9B20A394E
:1035C000C9B2E2E76121F8E7270043460693209B52
:1035D00005931F9B049303955B46029301970AABE7
:1035E0000093099B089A51464846FFF720FF13B005
:1035F000F0BCBB46B246A946A046F0BDF0B5DE46DB
:1036000057464E464546E0B595B0089009910A9256
:103610000B931E9E1F9C20AB1B789B46229B9946BA
:10362000239D269B9A463300234303D110335246F1
:103630009A4392468023DB0057461F4052461A4267
:1036400019D0330023432DD0002714E03033DAB2F1
:103650007B1C98460CABDA554A462B003000210003
:10366000FFF78EFAA5421FD819D043461F2B1BD84F
:10367000474606000C004A462B0030002100FFF7A9
:103680007FFAD3B2092BE1D95246920605D54122E1
:10369000D218D2B20A3AD2B2DAE76122F8E7B145DB
:1036A000E3D901E00023984653460693259B0593F2
:1036B000249B04934B4603935B460293434601933A
:1036C0000CAB00930B9B0A9A09990898FFF7AFFE81
:1036D00015B0F0BCBB46B246A946A046F0BD0000FE
:1036E000F0B5DE4657464E464546E0B591B08346B6
:1036F0008A460C9298461A9C08941B9D09952200B4
:103700002B0020002900FFF7B6FC002800D0E5E0E0
:1037100001225242D74B20002900FFF7A7FC0028C6
:1037200000D0DBE001225242D34B20002900FFF7FA
:1037300087FC002800D0D1E000220023089E300042
:10374000099D2900FFF77CFC002800D0DDE00898E7
:103750000999069007918023DB001E9A1A400D926A
:103760001E9A1A4201D106231C9306980799040059
:103770000D000A000600024300D1D1E0080D40050B
:10378000400DBE4CA44660440A03120BBC4B1343CD
:103790001F00FFF781FCBB4ABB4BFFF712FCBB4A83
:1037A000BB4BFFF7EFFB04000D000022B94B3000CC
:1037B0003900FFF7E2FBB84AB84BFFF702FC020002
:1037C0000B0020002900FFF7DDFBFFF77DFC8146A1
:1037D000FFF762FC04000D00B14AB24BFFF7F1FBAA
:1037E0000022B14BFFF7CEFBFFF76EFC0600AF4A9D
:1037F000AF4B20002900FFF7E4FB04000D00300070
:10380000FFF74AFCAB4AAC4BFFF7DBFB02000B00B7
:1038100020002900FFF7B1FB04000D0002000B009F
:10382000FFF7CFFB0A900B91A44BF31800261F055E
:1038300022002B0020002900FFF7A4FB0E900F911F
:1038400022002B0000208021C905FFF796FB040011
:103850000D0000229A4B0A980B99FFF798FB002263
:10386000984BFFF78FFB02000B000A980B99FFF7AC
:103870008EFB0022944BFFF785FB02000B000A9899
:103880000B99FFF784FB02000B0020002900FFF7D3
:1038900079FB02000B000E980F99FFF778FB0022CE
:1038A000774BFFF76FFB32003B00FFF78AFB060008
:1038B0000F0004000D00069A079BFFF7D7FB0028B6
:1038C00030D001235B429C46E14400227D4B300016
:1038D0003900FFF75CFB04000D0023E01E9B0493FE
:1038E0001D9B03931C9B0293089A099B00920193D2
:1038F00043460C9A5146584600F0FCF811B0F0BC13
:10390000BB46B246A946A046F0BD0023002406935C
:103910000794069680231B069C46654407951AE784
:10392000002399464B466333C62B1ED804261E9BA4
:103930001B0526D52B0023430FD0644A644B069801
:103940000799FFF78BFB002879D00022614B06987E
:103950000799FFF775FB002871D01C9B4B4506DDCE
:103960004A46981A431E1C9303E00526DFE700230E
:103970001C938023DB001E9A1A431E92002600230C
:1039800099461D9B9E4264D29F1B02231E9A1A4099
:103990000A921E9A134202D0002E00D000274B46F6
:1039A000002B07D022002B0006980799FFF7EFFAAB
:1039B000069007910022002308980999FFF740FB21
:1039C000002848D1444B1E9A1340049303971C9B34
:1039D0000293069B079C0093019443460C9A514620
:1039E000584600F087F8002E00D187E71E9B9B0603
:1039F0003DD54525441C4346020051462800D84782
:103A00004B46DA179B18534005220592013E049657
:103A1000002203920A3202924A46D00F019000938C
:103A20004346220051465846FFF78AFD0A9B002B69
:103A300000D163E702005F460C9E1D9D54E01C9B75
:103A4000002B9ED00D9B002B9BD01C9B013B1C93FD
:103A500097E7002799E7069C079D22002900802010
:103A60000006844661440B0006920793AAE7652589
:103A7000C0E7C046FFFFEF7FFFFFEFFF01FCFFFF46
:103A80000000F03FFB799F501344D33FB3C8608BD5
:103A9000288AC63F0000F83F61436F63A787D23F83
:103AA00071A379094F930A400000E03F1655B5BB5A
:103AB000B16B0240EF39FAFE422EE63FFF030000F1
:103AC00000002C4000002440000018402D431CEB57
:103AD000E2361A3F80842E41FFF7FFFF541C434615
:103AE00051462020B8472200931BAB42F6D310006A
:103AF00004E7C046F0B5DE4657464E464546E0B5BB
:103B000095B00690079193469946209F1E9A1F9B59
:103B100010001900FFF7AFFA002831D101225242FC
:103B2000BF4B1E981F99FFF78BFA002837D101224F
:103B30005242BC4B1E981F99FFF798FA00283DD1BE
:103B40000022B94B1E981F99FFF790FA002850D118
:103B50000022B64B1E981F99FFF772FA002848D131
:103B6000002200231E981F99FFF76AFA002850D1FF
:103B700000239846229B5B0500D4B6E0002458E061
:103B8000229B0393219B029303230193A84B009351
:103B90004B465A4607990698FFF7F2FB0EE1229B27
:103BA0000393219B029304230193A24B00934B4662
:103BB0005A4607990698FFF7E3FBFFE00423229A91
:103BC0001A4022990B4210D09B4B002A0FD004229E
:103BD0002299039121990291019200934B465A46F2
:103BE00007990698FFF7CCFBE8E0944BEDE703223A
:103BF000EEE7229B0493219B039302971E9B1F9C3D
:103C0000009301944B465A4607990698FFF768FDC2
:103C1000D4E01E9A1F9B00200021FFF7AEF91E90F2
:103C20001F9101239846A5E70CAB30221A55013F9E
:103C300001341F2C01D8092FF6D81E981F99FFF7C1
:103C400043FA0500FFF728FA02000B001E981F999F
:103C5000FFF793F9FA007A4B9B181A685B680A928F
:103C60000B93FFF7AEF908900991FFF751FA0600A0
:103C7000FFF70EFA02000B0008980999FFF77DF98B
:103C80000890099100226F4BFFF7F0F900282ED021
:103C900001363000FFF7FCF902000B000A980B997F
:103CA000FFF7D4F9002801D001350026002F2CD1D0
:103CB0002800FFF7F1F902000B001E981F99FFF78B
:103CC0005CF906000F0000225E4BFFF7B9F90028EF
:103CD00046D100225B4B30003900FFF7C7F90028BE
:103CE0003ED1EB073CD501353AE0062746E70022F6
:103CF000544B08980999FFF7A3F90028D6D1002E54
:103D000001D0F307D2D50136D0E7AA461F2C11D82F
:103D1000013F0A213000FEF7F5FE651C30310CAB87
:103D200019550A213000FEF7EDFE092E0ED90600C6
:103D30002C00EBE755461F2C0CD87B1E002F09D01A
:103D40000CAA302111551F000134F4E72B00554611
:103D50001C00F0E71F2C03D80CAB2E221A5501349F
:103D60001F2C10D80A212800FEF7A4FE661C303153
:103D70000CAB19550A212800FEF79CFE051E01D048
:103D80003400EDE734000323229A1340012B1CD0AA
:103D90001F2C06D84346002B32D00CAB2D221A55CF
:103DA0000134229B0393219B029301940CAB00935B
:103DB0004B465A4607990698FFF7E2FA15B0F0BC51
:103DC000BB46B246A946A046F0BD219B002B13D0AE
:103DD0004346002B02D10C3313420FD0219B013BF1
:103DE0002193190003E00CAB30221A5501348C42A8
:103DF000CED21F2CF7D9CBE72199F8E72199F6E726
:103E0000229B5B0704D50CAB2B221A550134C8E763
:103E1000229B1B07C5D50CAB20221A550134C0E7E5
:103E2000FFFFEFFFFFFFEF7F65CDCD4165CDCDC13A
:103E3000B86E0010BC6E0010B06E0010AC6E0010BA
:103E4000A87000100000E03FF0B5DE4657464E4631
:103E50004546E0B593B082468B46904611930029C3
:103E600000D1EBE200275546119B1878002800D1BD
:103E7000E7E2252809D07C1C43463A005946A8476A
:103E8000119B013311932700EEE7013311930024B6
:103E9000119A11780B00203BD8B2102803D8830068
:103EA000D048C3589F460B00303BDBB2092B2CD9BE
:103EB0002A292FD000230A93119B1A782E2A39D051
:103EC00000239A46119A1378683BD9B2122976D802
:103ED0008B00C549CB589F4601231C4301321192E8
:103EE000D6E702231C4301321192D1E704231C437D
:103EF00001321192CCE708231C4301321192C7E72B
:103F000010231C4301321192C2E711A8FFF726FAD1
:103F10000A90D1E71C9B1A1D1C921868002804DB2C
:103F20000A90119B01331193C6E702231C434342BD
:103F30000A93F6E78022D20014435A1C11925A7851
:103F40001300303BDBB2092B04D92A2A07D0002307
:103F50009A46B7E711A8FFF701FA8246B2E71C9B21
:103F60001A1D1C921868002804DB8246119B01333D
:103F70001193A7E70020F8E780235B002343511C3F
:103F8000119152786C2A01D01C0018E0C0239B00CC
:103F90001C430131119112E080232343511C1191E4
:103FA0005278682A01D01C0009E0C0231C4301316B
:103FB000119104E080235B001C4301321192119B9C
:103FC00018780300253BDAB2532A00D92CE293007B
:103FD000864AD3589F4680239B001C43013211928E
:103FE000EDE780235B001C4301321192E7E778285C
:103FF00009D0582838D06F2838D0622838D01023FC
:104000009C430A2600E01026582833D0692803D0A4
:10401000642801D00C229443630501D50122944306
:1040200069282AD0642828D0A30500D59FE0E3059D
:1040300000D5B8E0630600D4CAE01C9A111D1C919B
:104040001168FF220A4005940A9B04935346039388
:10405000029600230193009243463A0059462800F5
:10406000FFF76EFA070027E01026CDE70826CBE71A
:104070000226C9E720221443C8E7A30520D4E3059C
:1040800050D4630666D51C9A111D1C911168FF223D
:104090000A40D317D118594005940A9B04935346FC
:1040A00003930296D20F0192009143463A0059467B
:1040B0002800FFF745FA0700119B01331193D3E65F
:1040C0001C9BDA1D07218A43110008311C911168DD
:1040D00053689C46DB170C930D930C9A0D9B1000B4
:1040E00048400E90624653400F930E980F990C9AD9
:1040F0000D9B801A99410E900F9108940A9B07938B
:10410000534606930496002305936346DA0F029202
:104110000090019143463A0059462800FFF76EFA95
:104120000700C9E71C9A111D1C911268D317D118FA
:10413000594005940A9B0493534603930296D20F69
:104140000192009143463A0059462800FFF7F8F9DA
:104150000700B1E7230605D51C9A111D1C91002309
:10416000D25E96E71C9A111D1C91126891E71C9B68
:10417000DA1D07218A43110008311C9108940A9B1B
:1041800007935346069304960023059302931368FE
:1041900054680093019443463A0059462800FFF7BB
:1041A0002DFA070088E71C9A111D1C9105940A9BA3
:1041B00004935346039302960023019313680093DC
:1041C00043463A0059462800FFF7BAF9070073E75B
:1041D00023060DD51C9A111D1C9112681204120C95
:1041E00031E7C046C46E0010086F0010546F001015
:1041F0001C9A111D1C91126825E746281AD01C9B99
:104200000733072293431A0008321C9204940A9A37
:104210000392524602925C681B68009301944346E5
:104220003A0059462800FFF765FC0700119B01334F
:10423000119319E620231C43E1E7672801D04728A2
:1042400002D180231B011C43452801D0472801D1FE
:1042500020231C431C9B0733072293431A00083278
:104260001C9204940A9A0392524602925C681B685C
:104270000093019443463A0059462800FFF730FA6C
:104280000700119B01331193EEE502231A0022402F
:10429000924623421FD001241C9B1A1D1C927A1C9B
:1042A0009146187843463A005946A8475346002B92
:1042B00016D1119B013311934F46D5E5561C434649
:1042C00059462020B847230032005C1C9D42F5D897
:1042D0003D001700E0E701233A002F000A9DF4E7B4
:1042E0004A46A9460A9D06E0571C434659462020E7
:1042F000C84734003A00661CA542F5D84D469146A1
:10430000D7E71C9B1A1D1C921B6899465346002B2D
:1043100000D1013B4E4601E0013613003278002AFD
:1043200002D05A1E002BF7D14B46F21A109280236E
:10433000DB0026001E401C4203D0524501D95346E3
:10434000109302231A0022400B92234205D03A0018
:1043500037004C46A946554620E03A00109B5F4680
:10436000B3462E0006E0551C434639002020B047D6
:1043700023002A005C1C0A999942F4D835005E4655
:10438000BB46109437004C46A946554606E01D0032
:104390000134561C43465946C8473200207800284D
:1043A00004D0002FF4D06B1E002DF0D117004D4625
:1043B0000B9B002B03D1119B0133119354E50A9FF2
:1043C000109B06E0561C434659462020A847230070
:1043D00032005C1C9F42F5D81700ECE721231C43F8
:1043E0001C9B1A1D1C921B680093059408230493C0
:1043F00053460393102302930023019343463A004C
:1044000059462800FFF79CF80700119B01331193D0
:104410002AE57C1C43463A0059462520A847119BB3
:104420000133119327001FE57C1C43463A0059468F
:10443000A847119B01331193270015E50A4B9A46B3
:1044400010E5AA46474502D343465A1E00E03A000B
:10445000434659460020D047380013B0F0BCBB4655
:10446000B246A946A046F0BD4D3300100EB410B5BB
:1044700085B0010007AC08CC03940122009452429D
:104480000348FFF7E1FC05B010BC08BC03B01847B7
:10449000453300100CB410B584B00A0006AC08CC4B
:1044A0000394009401000448FFF7CEFC04B010BC54
:1044B00008BC02B01847C0464533001000B585B0AF
:1044C000029003910121009313004A4202A902487D
:1044D000FFF7BAFC05B000BD4F33001000BEFDE78A
:1044E00003000A4A1268002A08D0084A1068C31854
:1044F000074A9A4206D3054A13607047034A0549A2
:104500001160F2E701204042F7E7C0469C0D002011
:1045100000000420D80F002010B5FFF7DFFF0000D7
:1045200010B582B00C001900002A0CD0084B002AEC
:104530000BD00192009323000200064800F060F9BE
:104540000120FFF7CBFF044BF1E7034AF1E7C04638
:10455000F870001008710010D061001010B5EFF372
:104560000583002B00D000BEFEF7CAF9034C01E022
:1045700008CC9847024B9C42FAD310BD245D001032
:10458000285D001010B50300080011001B68984753
:1045900010BD0000F8B507000D001600437D002B8C
:1045A00002D0002400200CE0036811002800984786
:1045B0002DE03B7D10E0022115483B689847601CC8
:1045C0000134B44214DA002CF3DD2B19013B1B78C3
:1045D0000D3B5A425341DBB22A5D0A2AF0D1002B2F
:1045E000EED1A042E7DA211A28183B689847E2E7A3
:1045F000B04203DA311A28183B689847002E06DDCE
:10460000AD19013D2B780D3B5A4253413B75F8BD26
:104610003871001070B505000368002B16D00C4BE4
:104620001C6805E0290004C92000FFF7B3FF2469D6
:10463000002C09D02368002BF9D0064B1B68002BF7
:10464000F0D0A342F3D1EDE700232B6070BDC0464C
:10465000800D0020980D002070B505000C000B683F
:10466000802B05D021684B1C23606418257170BD18
:104670000800FFF7CFFFF5E710B5FDF731FE074A59
:10468000002312184B41002B03DB054801F024FBEB
:1046900010BD01225242034BF7E7C04640420F00D3
:1046A000200B0020FFFFFF7F10B5024801F0FCFA4D
:1046B00010BDC046200B0020F0B5CE46474680B561
:1046C00083B006000D0090461C00FFF7D5FF814621
:1046D0006B1C05D0002C08D0184F194B1C6807E044
:1046E000300000F00BFF0500F4E7164FF5E72469F2
:1046F000002C17D02368002BF9D0134B1B68002B1C
:1047000001D0A342F3D12A0031002000B84743462C
:10471000002BECD06B46D91D0A230B700122200020
:10472000B847E4E74B46002B05D1280003B0C0BCD6
:10473000B946B046F0BDFFF7B7FFF6E79545001064
:10474000800D002085450010980D0020094A01E0E9
:1047500010331A001368002B08D08342F8D10029C7
:1047600007D1036913600023036102E0002900D030
:1047700010607047800D002010B5064B1C6801E0EA
:1047800098472469002C03D06368002BF8D1F8E720
:1047900010BDC046800D002010B500F03FF901208B
:1047A00010BD70B5050000F0A9FE04000123012230
:1047B00001002800FFF780FFFFF7DEFF200070BD3B
:1047C00070B5A2B004000E00FFF756FF05000023ED
:1047D00001933300220001A90848FFF76FFE04008F
:1047E00001A8FFF717FFFFF7C7FF002D02D1200038
:1047F00022B070BDFFF758FFF9E7C04659460010D8
:104800000FB400B583B004A901C90191FFF7D8FF27
:1048100003B008BC04B01847F0B583B005000E0023
:1048200000240FE06B46D91D0D230B7000200028DB
:1048300016D193699B06FCD40B78136001300131CB
:10484000F5E70134B44219DA0D4B1A682F5D0D4BB0
:10485000D31859424B415B000B495B5EBB42E1D030
:104860006B46D91D0F7000200028EAD193699B0682
:10487000FCD40B78136001300131F5E703B0F0BDD3
:10488000CC0F00200080FCBFC80F0020F0B583B023
:1048900006000F00002504E06B4607331B782B70E1
:1048A0002500BD4215DA164B1A68936910242100C1
:1048B00019401C420DD16C1C75196B46D81D00297E
:1048C000EAD19369DB06FCD413680370013101302F
:1048D000F5E70C4B1B68002B0AD0094B1B685022D4
:1048E0009A63596B183A0A4007498C4663441A6028
:1048F000002D02D0280003B0F0BD033DFAE7C0460A
:10490000CC0F0020040D00203410000010B5064B21
:104910001B68002B06D0054A126800219163044AE7
:104920001068984710BDC046040D0020CC0F002031
:10493000080D0020024B1A6893691B07FCD47047CE
:10494000CC0F002070B51E4B1B681E4A934209D045
:104950001424002803D01C4A1268002A04D000281E
:104960001AD070BD1524F4E7174B1860174B196067
:1049700017492000FCF7C6FD01212000FCF7B0FD1F
:104980000F4B1B6850229A63596B183A0A40114921
:104990008C4663441A60E4E70B4A1268002AE0D0B0
:1049A00000259D6300212000FCF79AFD08492000A6
:1049B000FCF7EEFE044B1D60044B1D60D1E7C046C2
:1049C000CC0F002000800340040D0020080D0020C3
:1049D0000D4900103410000070B50D001C000D4B87
:1049E0001860002A0BDA002C0EDA0A4B186829002E
:1049F000FDF7C8FD01210848FFF7A8FE70BD0221A0
:104A00001000FCF75BFBEEE702212000FCF756FBF1
:104A1000EBE7C046CC0F0020C002002010B5074BCA
:104A20001B78074B1B78074B1B78E12101230022E1
:104A300049020548FFF7D0FF10BDC0463472001090
:104A4000387200103C72001000400340F0B5DE46A2
:104A500057464E464546E0B587B0070093461800D6
:104A6000039310AB1A780592119D129A90463B68F9
:104A70000022DA663B6859603B680132DA660290D0
:104A8000002399460493002600242DE03B79002B57
:104A900039D0012337E0059A002A01D0002236E000
:104AA000012234E000214046A84706000443E4B256
:104AB000002E06D13B685B6BDB0602D4002DF1D1E2
:104AC000F6E7002E09D13B6880229A580492002A0A
:104AD00028D1002C39D1CA4527D0002C3DD1012343
:104AE0009C46E144019B9B46029B994535DA039B1A
:104AF000013B9A46002D02D001214046A8474B4673
:104B0000002BC3D000239B02CA45C4D0002252020E
:104B100013435A46013201925A4611783A680B43C0
:104B20001361CBE75B6D01240FE0059B002BD4D113
:104B30000BE000214046A84706000443E4B2002EE3
:104B400006D13B685B6B9B0502D4002DF1D1F6E7E3
:104B5000002EC2D13B681B6EBFE7002C08D0002E90
:104B600014D1049B002B15D0DA0717D41B0709D5E5
:104B7000059B3B71484607B0F0BCBB46B246A94610
:104B8000A046F0BD01235B429946F1E702235B4258
:104B90009946EDE701235B429946E9E701235B4231
:104BA0009946E5E7F0B5DE4657464E464546E0B540
:104BB00085B005009146180002930EAB1A78039257
:104BC0000F9E109F2B680022DA662B6859602B68B5
:104BD0000132DA66834600239846019300242CE0D4
:104BE0002A79002A3BD0012239E00399002901D01B
:104BF000002138E0012136E05B6D0124002E05D054
:104C000000213800B04701900443E4B2002C0AD1DF
:104C10002B689B6F002B06D12B6880229A585A6B09
:104C20005206EBD5E8E7002C24D12B681B694A46D5
:104C3000137001239C46E044E144D8451ADA029BF4
:104C4000013B9A46002E02D001213800B0472B6864
:104C50005A6F102AFBD04246002AC1D0002292028D
:104C6000C245C2D0002149020A43802149000A43BB
:104C70001A61D1E7002C05D0019B002B0CD0022338
:104C80005B429846039B2B71404605B0F0BCBB4687
:104C9000B246A946A046F0BD01235B429846F1E723
:104CA000F0B5D6464F464646C0B505000C00052077
:104CB000FDF73AFD0600600880192100FDF722FF8C
:104CC000070043009946814405214846FDF71AFF35
:104CD00080463B1A9A46274B9C4225D87000801983
:104CE0002549FDF70FFF441C4346023BA34222D354
:104CF0002B680022DA662B681A68042151400622CC
:104D00000A40802149018C4663441A602B68524650
:104D1000DA612B6842461A624B464F2B11D950215B
:104D20004846FDF7EFFE0DE0700080191349FDF7CE
:104D3000E9FE441CD8E7124B124A5D211248FFF7E6
:104D4000EFFB0120A0232A68D0502B68D86F444085
:104D50002404240C0D4A944663441C602B680122F1
:104D6000DA6639003000FDF7CDFEE0BCBA46B14648
:104D7000A846F0BD3F420F008096980040787D0124
:104D80008471001004720010A47100107C100000E7
:104D900010B5164B984224D0042201239340144AA4
:104DA0001360124B98421ED0042301229A40114BEB
:104DB0001A60114B1B6814009C43231EF9D1047127
:104DC0000268D46602686624FF3414600268D36304
:104DD00002689363883303220468E250FFF760FFA0
:104DE00010BD0322D9E70323DFE7C046D802002025
:104DF00000E0004000F0004008C0004030B585B041
:104E000008AC25780024029401940095FFF71EFE5B
:104E100005B030BD30B585B008AC257800240294CB
:104E200001940095FFF7BEFE05B030BD030010B53C
:104E30000A0003490868190000F004F810BDC046D4
:104E4000E002002070B50B0C0024150C002B28D1BB
:104E5000002D37D18BB291B2594300F047F8051EAF
:104E600019D00300083B5A6803239A43043A242AC2
:104E700013D80300132A0AD90460446008331B2A9C
:104E800005D98460C460242A25D003001033002291
:104E90001A605A609A60280070BD0021FEF746FA39
:104EA000F9E7002D11D1151C89B292B24A43ADB277
:104EB0009BB26B43110C5B18190C06D1190492B20A
:104EC0001143CAE72B1C0D1CEEE700F009F80C2378
:104ED00000250360DFE70300046118334461D6E76F
:104EE000014B18687047C046E0020020F0B54E46FE
:104EF0004546DE465746E0B50D000B35060083B04B
:104F0000162D22D8102900D9B2E000F0D5FA1025CC
:104F100018230220CC4FFB181A005C68083A944210
:104F200000D1B5E0032362689A431300E268A168E8
:104F3000CA6091600122E318596830000A435A6040
:104F400000F0C2FA2000083095E007239D4300D509
:104F50008EE0A94200D98BE000F0AEFAFC235B00A2
:104F60009D4200D2A7E1680A00D18BE0042800D955
:104F70007AE138239846A80980443930C100B24FFD
:104F800079184C680839A1420ED003239C4604E0EE
:104F9000002ACBDAE468A14206D0624663689343F4
:104FA0005A1B0F2AF4DD40463A003C69083294420D
:104FB00000D178E003236168994389460B00491BBF
:104FC0000F2900DD7BE17A613A610029B2DA8022A3
:104FD0009200914500D30FE15909DA0801238B4073
:104FE000D2007968D2190B4391687B60E260A160BE
:104FF0009460CC60012182109140994259D80B42B3
:1050000005D103229043490004300B42FBD0032317
:105010009846C3009946B944CC4682466346DC684C
:10502000A44507D12CE1002A00DB35E1E468A44562
:1050300000D125E14246636893435A1B0F2AF2DDF3
:1050400001208046611905436560A068E56808375E
:10505000C560A86040461043F960B9604860CF6001
:1050600030008F60E25000F02FFA2000083002E09C
:105070000C230020336003B0F0BCBB46B246A94607
:10508000A046F0BD80213F2340209846890076E766
:10509000DC680230A34200D044E73A003C690832A1
:1050A000944200D086E701217B68821091409942AA
:1050B000A5D90323BC6862689A439146954203D8F8
:1050C000531B0F2B00DD89E023004B445F4A019303
:1050D0005F4B93461B681268EB18013200D13DE12B
:1050E0005C4A944663441B0B1B03009330000099F9
:1050F00000F0F2F903008046013300D1FAE0019B91
:10510000834200D9F4E0544B00981A009A46126882
:1051100003009446514663440B6001991A004145CF
:1051200000D151E15B461B68013300D156E1434693
:1051300001995B1A9A1853461A6007234246414662
:105140001A400192194200D112E108239846881AA8
:10515000424B0099804441449B1A5B1A1B051B0D6E
:105160000091300019009B4600F0B6F9431C00D1B5
:1051700050E14346C01A03005B4400935346524635
:105180001B6801215B44136042464046BA60009AA6
:105190000A434260BC4200D124E14A460F2A00D8AB
:1051A00022E107200C3A8243606801400520114348
:1051B0006160A118486088600F2A00D935E1424635
:1051C0004446526826490868984200D20B60254937
:1051D0000868984200D38FE00B608DE0012229001F
:1051E00013431143651961603000BD606B6000F0CE
:1051F0006BF9200008303EE75A0A042A72D9142AB3
:1052000000D9C5E011005C325B31D20008235B425B
:105210009C46BA18944463469A680323984694457A
:1052200000D19EE0434651689943494502D99268AE
:105230009445F7D1D3689C467B686146A260E160E3
:105240008C60D460D6E6C04610070020180B002002
:10525000F80C00200F100000C80C002008100000FF
:10526000F00C0020F40C0020142852D9542800D946
:1052700096E06E239846280B80446F30C1007EE68E
:1052800008239B46073BDC449B46DA444346524690
:10529000134200D0C2E64CE00122E3185968300006
:1052A0000A435A60E368A268D3609A6000F00CF980
:1052B00020000830DFE62B00E80808332AE6012347
:1052C00060191D43656078613861C26082601A00B0
:1052D0004B460A4342603000E15000F0F5F82000F0
:1052E0000830C8E69A09110039323831D2008DE70A
:1052F000BC4260D0BC68626803239A43531B95424A
:1053000002D80F2B00DD69E7300000F0DDF8002047
:10531000B1E65B23984680445C30C1002FE6082349
:105320005B429C46E1444B469B6801384B4500D0AC
:1053300098E043460342F2D17B688B437B6049008F
:10534000994200D9B5E6002904D1B2E60422944678
:105350004900E2440B42F9D050465AE6103300931C
:10536000C4E68910023B8B4079680B437B6064E79D
:10537000009B300043445B421B051B0D19009B46FC
:1053800000F0AAF8431C00D0F3E600239B46F5E6A4
:10539000542A2BD81A0B11006F326E31D20035E728
:1053A000AA235B0098422BD8DD3B9846E80B80444B
:1053B0007830C100E3E52C4B009A9A461B689C4666
:1053C000534662441A60ADE6090500D0AAE6020021
:1053D000BC684A4401310A436260F3E65B464246D8
:1053E0001A60AAE64446EDE641608DE7AA2149002D
:1053F0008A4224D8DA0B110078327731D20005E7DF
:105400001A4B984224D87C239846A80C80447D30BF
:10541000C100B4E5009A019B94464246083B6344B0
:105420009B1A009300239B46A8E621003000083118
:1054300000F0DEFA5346BC681B686268C2E60B499E
:105440008A420BD89A0C11007D327C31D200DDE605
:10545000FE217E237F209846890090E5FE227E2152
:105460009200D3E67B686AE7C80C00205405000070
:1054700030B5032A0CD903000B439B0719D10368ED
:105480000C68A34215D1043A04300431032AF6D83B
:10549000551E002A0BD0002303E05A1C9D4206D063
:1054A0001300C25CCC5CA242F7D0101B00E00020CD
:1054B00030BD551EEFE7C04610B5024800F07AFB3C
:1054C00010BDC046C40C002010B5024800F074FBAB
:1054D00010BDC046C40C0020002370B5064D04006A
:1054E00008002B60FEF7FCFF431C00D070BD2B684A
:1054F000002BFBD02360F9E7840D002010B5830753
:105500000AD00300032102E001330B4205D01A78D0
:10551000002AF9D1181A10BD030019680C4A0D4C65
:105520008A188A4322420FD15968094A04338A18DB
:105530008A43224208D15968054A04338A188A43AB
:105540002242F1D000E001331A78002AFBD1E1E7D2
:10555000FFFEFEFE80808080F0B5DE464E4645466A
:105560005746E0B59C4C8346A544884614001E006F
:10557000012B00D82AE101200125B4460021012297
:10558000012306006D4205E0190001225E1B8B1805
:105590009C450DD96019E75C805C8742F4D300D14B
:1055A00088E001220D0001318B1801269C45F1D8BD
:1055B0000123009666469C46023B994648460021D8
:1055C000A94601220500023306E05A1B9446190041
:1055D00001228B189E420DD9A018E75C405D8742DE
:1055E000F3D86CD0012301220D0001319C468B18A9
:1055F0009E42F1D82B004D4601336A1C92469A42D6
:1056000002D862469A460092FFAA02AB0C3240C30F
:105610009A42FCD101256D42002E0DD02300A446F4
:10562000751E371960191A78C11A920002AC01333D
:10563000A1509F42F7D16446009B52462000E118DA
:10564000FFF716FF002869D100235246994601331F
:105650009B1A0193330000274E4699465B46D819A2
:10566000435D02AA9B00D358002B2CD0002E04D0FF
:10567000009A934201D24B469B1A0026FF184346DC
:105680004A469B1ABB42E9D2802158460901114380
:10569000404400F0F3FA804443464A469B1ABB421A
:1056A000DCD200204D4B9D44F0BCBB46B246A9461F
:1056B000A046F0BD964200D185E0013267E7624521
:1056C0007ED0013285E75346B24506D2330004E06E
:1056D000E15CC25C91421BD10133AB42F8D353462B
:1056E000D446013BB24504D809E05A1EB34213D058
:1056F00013005A1C9446E15CC25C9142F5D001361D
:105700006645CFD8009B4A469C46D61A6744B6E702
:10571000019A94466744B0E7B446F0E75346F31A5B
:1057200053454BD301335246019301239B1A0093F7
:1057300080231B01994633000027464698465B4666
:10574000D819435D02AA9B00D358002B18D0DF194B
:105750004346F31A9F42F2D95B464946981943469D
:10576000194300F08BFA43463618F31A9F4298D833
:105770005B46D819435D02AA9B00D358002BE6D1A3
:105780005346AA4503D30AE00133AB4207D2E15C9A
:10579000C25C9142F8D0009A94466744D7E75346DA
:1057A000013B03D27EE7013B00D27BE7E15CC25CB8
:1057B0009142F8D0019B9C466744C9E75346B1E744
:1057C0008918012205E701228919E0E601230093E7
:1057D00000239A4618E7C046F4FBFFFF0C040000C4
:1057E000F0B5CE46474680B50E00097805000400A6
:1057F00091B0002950D07078002800D189E0B778A6
:10580000002F4FD0F378002B00D189E03279002AA5
:1058100058D03000FFF772FE802189000700014355
:10582000280000F02BFA874263D8FE2F00D989E0C8
:10583000C01B804640226846791CA844FDF776FDCF
:10584000002F0FD0BA1994463F2233009146F8B288
:10585000301849466C461A780A40C11A0133A154DF
:105860006345F6D12C003F256A46013CE35D2B40A1
:10587000D05C2418A04503D23DE04C44A0453AD367
:105880006A46E35D31002B40D35C20003A00994624
:10589000FFF7EEFD0028F0D1200011B0C0BCB946E2
:1058A000B046F0BD090400232A78014300E005005A
:1058B000002A1ED01B041343681C6A789942F6D153
:1058C0006C1EE9E72A78002A13D000020843390445
:1058D0001B060143194309BA002301E099421DD078
:1058E0002C001B02013513432A78002AF6D1994275
:1058F00014D00024D0E74346D819DB5D002BF8D044
:105900008021090100F0BAF980444445ACD9002453
:10591000C2E7280000F052F90400BDE7033CBBE7F2
:105920000906000401433F022A78394300E00500DC
:10593000002ADED013431B026A78681C9942F6D114
:10594000AC1EA9E701003B0032002800FFF704FE6F
:105950000400A1E7F8B50C000500FFF7ADFD204FEE
:10596000BB685E6803239E431E4B341B9C46644405
:10597000240B013C113324039C4207DB0021280047
:10598000FFF7AAFDBB689B19984204D02800FFF7D7
:105990009BFD0020F8BD28006142FFF79DFD431CE0
:1059A0000DD00122BB68361B16435E600E4B2800EB
:1059B0001A68141B1C60FFF787FD0120EAE700212D
:1059C0002800FFF789FDBA68831A0F2BDEDD07492F
:1059D0000968401A0449086001210B435360D5E768
:1059E00010070020EF0F0000C80C0020180B00204B
:1059F000F0B5C64605000C0000B500294FD0FFF7F2
:105A00005BFD210008394C68012622000320B243C7
:105A10008F187B688343624898468368BB426AD08C
:105A200043467B6026421ED108239C460C68844472
:105A3000091B12198C6864454FD0CB68E3609C60E9
:105A40004346FC186468344211D1BB68554C42444B
:105A5000A34200D17EE0FC68DC60A3600123134315
:105A60004B608A5006E0FC1864683442EDD016435F
:105A70004E603A6080239B009A4213D25409D308A7
:105A80000122A2404468DB00224342601818836868
:105A9000C8608B608160D9602800FFF715FD80BC6D
:105AA000B846F0BD530A042B3ED894092600393479
:105AB0003836E40004192368083C03279C4242D08E
:105AC0005868B843904202D99B689C42F8D1DC6880
:105AD000CC608B60A160D960DEE74346F81840686F
