:020000041000EA
:1000000000B5324B212058609868022188439860DF
:10001000D860186158612E4B002199600221596106
:100020000121F02299502B49196001219960352056
:1000300000F044F80222904214D00621196600F024
:1000400034F8196E01211966002018661A6600F04E
:100050002CF8196E196E196E052000F02FF8012189
:100060000842F9D1002199601B49196000215960AB
:100070001A491B48016001219960EB211966A021F2
:10008000196600F012F800219960164914480160C1
:100090000121996001BC002800D000471248134993
:1000A000086003C880F30888084703B5996A0420EC
:1000B0000142FBD001200142F8D103BD02B5186610
:1000C0001866FFF7F2FF186E186E02BD00000240BE
:1000D000000000180000070000035F00212200005C
:1000E000F4000018222000A00001001008ED00E03C
:1000F00000000000000000000000000074B24E7A12
:1001000000200420F7010010C3010010C5010010F9
:10011000C1010010C1010010C1010010C101001097
:10012000C1010010C1010010C1010010C701001081
:10013000C1010010C1010010C9010010CB01001065
:10014000CD010010CD010010CD010010CD01001037
:10015000CD010010CD010010CD010010CD01001027
:10016000CD010010CD010010CD010010CD01001017
:10017000CD010010CD010010CD010010CD01001007
:10018000CD010010CD010010CD010010CD010010F7
:10019000CD010010CD010010CD010010CD010010E7
:1001A000CD010010CD010010CD010010CD010010D7
:1001B000CD010010CD010010CD010010CD010010C7
:1001C00000BE00BE00BE00BE00BE00BEEFF3058054
:1001D000103800BEF2EB8871AC770010D0770010B9
:1001E0003402001090A31AE700201F49086006C8D7
:1001F00081F3088810471D48006800282FD10DA4FE
:100200000ECC002902D000F012F8F9E71849194A7B
:10021000002000E001C19142FCD1174988471749ED
:1002200088471749884700BEFDE701C901C29A42C5
:10023000FBD37047D0770010C00000204C0B00208B
:100240005C82001000000420000004205C8200108A
:10025000001004200010042000000000704709482E
:1002600004F028F90047000008ED00E0000000D08D
:10027000500B0020DC0F00200D320010290A001066
:10028000C93100105756000006005250ABB36053FE
:100290007076001006005250861C03028076001013
:1002A000060052505422A29D907600100500525034
:1002B000DE65F4685C820010F8B5C04610B5064CE7
:1002C0002378002B07D1054B002B02D0044800E017
:1002D00000BF0123237010BD500C0020000000005F
:1002E000A85F0010044B10B5002B03D0034904484D
:1002F00000E000BF10BDC04600000000540C00200C
:10030000A85F0010F0B5C64600B582B0804602F086
:1003100017F906000F001D490A68002334003D004C
:10032000A41A9D41002D03D109D1194B9C4206D935
:10033000164B1E604346082B10D0072B16D0002DFD
:1003400003D107D1134B9C4204D9104B1E60434686
:100350001B2B13D002B080BCB846F0BD6B46D91D34
:1003600001230B700C4802F0BBFCE8E76B46D91D7B
:1003700002230B70084802F0B3FCE0E76B46D91D7E
:1003800003230B70044802F0ABFCE3E7940D00205C
:1003900010270000204E00007C0D002010B50B49F6
:1003A0000B4805F0F5F80321102000F035FE03217D
:1003B000112000F031FE00220121102000F044FE47
:1003C00000220121112000F03FFE10BDA086010097
:1003D000E802002010B5040000F006FF0123A3404E
:1003E000D0221206536210BD10B52E4B1B78002B85
:1003F00037D02D4803680733D917490F5B180722F8
:1004000013405B1A0360284B1B681901274A8A585E
:10041000002A31D0D0221206042151611901234A49
:1004200052185268002A2CD0D0221206082151619D
:1004300019011E4A52189268002A27D0D0221206AB
:10044000402151611B01194AD318DB68002B22D0CF
:10045000D0231B06802292015A61012001F0BCFFCB
:1004600010BD114803680133D917490F5B180722E3
:1004700013405B1A0360C6E7D02212060421916183
:10048000CCE7D022120608219161D1E7D0221206D2
:1004900040219161D6E7D0231B06802292019A6108
:1004A000DBE7C046D80F0020300D00209464001018
:1004B00070B50B4C0721206804F028F80131216049
:1004C000084B1B68DA1707251540ED18ED100024BE
:1004D00002E0FFF789FF0134AC42FADB70BDC04691
:1004E0002C0D0020B80F002070B5051E05D0134B51
:1004F00001221A700124002603E00024FBE72E00ED
:100500001C00002E17D1FFF76FFFD0231B065A687F
:10051000120F0123190011400B00002D03D00029F8
:1005200001D0002CEBD0002DEAD10029E8D1002C1D
:10053000E6D00126E4E7300070BDC046D80F0020A9
:1005400010B5040000F050FE0123A340D022120693
:10055000936200220121200000F076FD10BD10B54D
:10056000040000F041FE0123A340D0221206536292
:1005700010BD70B50C0001258540D026360675618A
:10058000080001F029FFB561200001F025FF70BDD2
:1005900001238340D02212065361704700B583B017
:1005A0006B46D91D054802F0A0FB002804D06B461D
:1005B00007331B78032BF3D103B000BD7C0D002063
:1005C00070B50025002403E0032001F005FF03348B
:1005D000542C05D8FFF7E2FF0028F5D00500F3E71B
:1005E000280070BD01238340D0221206936170471A
:1005F00070B506000D000120FFF776FF0D4B0022BD
:100600001A70002402E0FFF7EFFE0134CE2CFADD71
:10061000FA20C00001F0E0FE002402E0FFF7E4FE53
:100620000134EA17072313405B19DB107343A3421D
:10063000F4DC70BDD80F002030B583B06B46DD1DF3
:1006400001222900074800F07BFB6B469C1D01221C
:100650002100054800F074FB2B781B02207818431A
:1006600003B030BD030800000408000010B582B0DC
:100670006B46D91D030A0B706B469C1D98710122B5
:10068000044800F027FB01222100034800F022FB70
:1006900002B010BD030800000408000070B5164B3E
:1006A00000221A600020FFF7E1FF0020FFF71CFF87
:1006B000002600240025002E01DD002414E0FFF7B1
:1006C00093FED0231B065B681B0F0122100018400D
:1006D0002100040001350029F1D00028EFD10136B6
:1006E000E9E7FFF781FE0134812CFADD024B1D6042
:1006F000A8B2FFF7BBFF70BDB80F002010B52B4CA0
:10070000012221002A4800F01BFB2A4804F068FC63
:100710002378002B07D0012B0BD0042B18D0022BF1
:1007200023D0002010BD2449244800F0DFFB002026
:10073000F8E72349214800F0D9FBFFF77DFF0028A7
:1007400001D10020EEE71F4804F04AFC0420E9E74D
:100750001D491A4800F0CAFBFFF76EFF1B4B1860DB
:100760001B4B01221A700420DCE71A49134800F0E1
:10077000BDFBFFF761FF0100144B1860164B984258
:100780000FD0164804F05CFC154C012221001548DE
:1007900000F0D6FA0D4B19682078FFF729FF0220E8
:1007A000C0E7114804F01CFCEEE7C0463802002008
:1007B00006080000A85F0010CC5F0010EC0C0020C1
:1007C00000600010346000104C600010B80F002072
:1007D000D40F00207C600010FFFF0000CC600010F0
:1007E000D70F002002080000B460001010B50349C4
:1007F00008700122024800F06DFA10BD3802002096
:1008000006080000F0B595B0002300934C220021AB
:1008100001A804F0B7FA634804F0E2FB00270025C2
:100820000024092C00D1BAE0082C00D9B4E0A300C0
:100830005D4AD3589F465D4A5D49684600F0CEFB4D
:10084000002805D069465B4804F0FAFB0124E8E77C
:10085000594804F0C5FB0135022DE2D99FE0534A07
:100860005649684600F0BAFB002805D0694654484E
:1008700004F0E6FB0224D4E7524804F0B1FB002464
:10088000CFE74A4A5049684600F0A8FB002805D047
:1008900069464E4804F0D4FB0324C2E74C4804F0F8
:1008A0009FFB0024BDE7414A4A49684600F096FB99
:1008B000002805D06946484804F0C2FB0424B0E78C
:1008C000464804F08DFB0024ABE7384A44496846AB
:1008D00000F084FB002805D06946424804F0B0FBD4
:1008E00005249EE7404804F07BFB002499E72F4A4B
:1008F0003E49684600F072FB002805D069463C4836
:1009000004F09EFB06248CE73A4804F069FB0024BF
:1009100087E7264A3849684600F060FB002805D082
:100920006946364804F08CFB07247AE7344804F023
:1009300057FB002475E76946324804F081FB370015
:100940000824002F00D06CE703212F4804F078FB27
:10095000002466E70025022DF3D82C4A2C4968466E
:1009600000F03CFB061EE6D101352900294804F0C1
:1009700067FBF0E70D4A2849684600F02FFB002886
:1009800005D06946254804F05BFB092449E7244863
:1009900004F026FB092444E7224804F021FB15B0AB
:1009A000F0BDC046FC600010BC63001020A1070031
:1009B0001061001014610010346100104C610010CF
:1009C000546100106861001084610010946100108F
:1009D000A0610010B8610010C8610010D86100105B
:1009E000EC610010206200103862001054620010A8
:1009F000606200107862001094620010A062001023
:100A0000B4620010D462001018630010002D310190
:100A1000C8620010FC620010446300105C630010A8
:100A200080630010A063001030B591B00024824BA9
:100A3000DC620220FFF7CEFC0320FFF7CBFC062090
:100A4000FFF7C8FC0D20FFF7C5FC1C2000F0CCFB15
:100A5000D0231B06802252059A62002201211C200D
:100A600000F0F2FA0820FFF76BFD0720FFF768FDA2
:100A70001B20FFF765FD1620FFF771FD9621890108
:100A80006E4802F079F90221042000F0C5FA022133
:100A9000052000F0C1FAFFF781FC04F0DDFAFFF752
:100AA000B1FE00F0F7FB030064220121644802F06C
:100AB00005F9644B012204211B2000F039FB0122BF
:100AC0000421082000F024FB01220421072000F06B
:100AD0001FFB3F236B441C705B4B1C7000F054F9F0
:100AE00001225A495A4800F02BF9FFF707FE04008B
:100AF0007DE0042C74D10420FFF778FE1620FFF768
:100B000047FD6DE00020FFF771FEFA214900162035
:100B1000FFF72FFD64E04F4804F062FA04245FE021
:100B20000220FFF763FE1620FFF75CFD4A4804F041
:100B300057FA4A4B1D78002D1FD100251DE0642176
:100B40001620FFF716FD0134042CF8DD6A1C444919
:100B5000684603F083FC6946424800F0C7F96846DE
:100B600004F03EFA6B1C3D490B7001223E4800F038
:100B7000B1F83E4801F030FC0135062D14DCFFF7DA
:100B800097FCFFF71DFD00280CD06A1C3849684609
:100B900003F064FC6946334800F0A8F9684604F0A5
:100BA0001FFADFE70024CFE700F0EEF80024264B21
:100BB0001C702A4B1C7001204042FFF717FE2D4B82
:100BC0001C6000F036F90BE03F236B441B78012BCF
:100BD00005D0022B04D1042C02D1022400E0012410
:100BE0003F216944164802F080F80028ECD1022C1D
:100BF00096D000D97DE7002C84D0012CF0D10120C3
:100C0000FFF7F4FD1C4804F0EBF90F4B1B78002BA9
:100C100081D1144C1949200000F068F9FFF73EFD1E
:100C20001749200000F062F9164804F0D9F9064B84
:100C300001221A700424D3E70040054000800340DD
:100C40007C0D002005030010D40F00203802002086
:100C500006080000206400104C640010D70F00202C
:100C600074640010EC0C002002080000B80B0000B7
:100C700058640010B80F0020E0630010EC6300100F
:100C8000F86300100C64001070B504000B4810E00D
:100C9000020A23785A40130919005140060208033A
:100CA00000B2704000B24A015040484080B2290072
:100CB00001344D1E0029EBD170BDC046FFFF00007E
:100CC00010B5FFF7E1FF002801D1013010BD002071
:100CD000FCE70000F0B5C64600B584B002AF884618
:100CE0001500030A3B717871961C13000933DB0869
:100CF000DB006A46D31A9D4602AC0222391D200051
:100D000004F046F80A2068442A00414604F040F8FE
:100D100000230093330022005021084804F064FCB3
:100D20000400052001F058FBA01B43425841C0B20B
:100D3000BD4602B080BCB846F0BDC046E802002007
:100D400030B585B00D001400030A6A461373507362
:100D500001230093013303AA50210A4804F044FC04
:100D6000022802D0002005B030BD002300932300EC
:100D70002A005021034804F043FC001B4342584121
:100D8000C0B2F0E7E802002010B590B0002409E0FE
:100D9000164804F025F96A462100154804F050F978
:100DA0004034A4B2F823DB009C421CD840226946A0
:100DB0002000FFF7C5FF002812D06B461B78002BE0
:100DC000EED03D236A46D35C002BE9D14021684632
:100DD000FFF776FF0028DBD0064804F001F9DAE7D8
:100DE000054804F0FDF810B010BDC0461C650010A9
:100DF00028650010146500104C65001030B591B0E6
:100E00000500002401E04034A4B2F823DB009C423A
:100E10000CD8402269462000FFF792FF0028F2D04C
:100E20006B461B78002BEED12C8000E0002011B027
:100E300030BD10B5002406E0012200212000FFF79C
:100E400049FF4034A4B2F823DB009C42F4D910BD22
:100E500070B592B005000C0046206844FFF7CEFF45
:100E6000002835D0002601963C22002102A803F07C
:100E700089FF2200290001A803F08AFF6B46043392
:100E80001E553E211800FFF7FFFE020A3E23694669
:100E90000431CA540133C85407336B4418884022C4
:100EA000FFF718FF041E10D046226A44138840330F
:100EB0009BB21380F822D200934210D880200222E5
:100EC000462169440001FFF705FF200012B070BD04
:100ED000FFF7AFFF46236B4400221A80C2E7FFF7FB
:100EE000A8FF46236B4400221A80E7E770B5040090
:100EF0000E00080004F0D4FE0500020031002000BE
:100F000003F046FF29002000FFF7A2FF002803D0CE
:100F1000034804F065F870BD024804F061F8FAE790
:100F2000606500108065001030B583B004000D00CE
:100F3000A36910210A001A4019420BD16B46D81D33
:100F4000002AF5D1A369DB06FCD4236803700132C3
:100F50000130F5E7280004F0A3FE002203E02B781F
:100F6000236001320135904203D9A3699B06FCD46A
:100F7000F5E703B030BDF0B583B004000E001700F4
:100F800004220021380003F0FDFE00250DE06B4631
:100F900007331B780A2B06D00D2B04D04E2D04DC12
:100FA0007B55013501E0002D12DC3100200001F0FD
:100FB00023FF00280FD000226B46D91D002AE6D15E
:100FC000A369DB06FCD423680B7001320131F5E71D
:100FD0007D1900232B7003B0F0BD000070B5050033
:100FE00014000A4E3000FFF79FFF2A002100300056
:100FF000FFF7C1FF041E05D02900054804F020F8C2
:10100000200070BD034803F0EBFFF9E700800340C8
:101010009C650010AC65001010B58300084A94462A
:1010200063441C6840226240C02414408022520164
:1010300013431C60C000034B9C466044416010BDDC
:1010400004C001400040014080000B4B9C466044BE
:1010500000290DD00823002A0CD004221343026873
:1010600053400C221340802252011043036070470A
:101070000023F0E70022F1E704C0014070B504004E
:10108000D0231B061D68AA000C4BD358002B0AD096
:10109000002803D0AD00094BEC5070BD08490D206D
:1010A00000F0CEFAF6E70028F7D0AD00034BE85089
:1010B000002203490D2000F0A9F9EEE7B40C00204E
:1010C00051110010072303409B00C00899403C3099
:1010D0008000014BC150704700400140F8B5070047
:1010E0000C0016001D00FFF7EDFFFB089B00ED183C
:1010F0000720384080008440002E04D080239B01CC
:101100001D432C60F8BDC0239B011D432C60F9E7F3
:1011100010B5D0231B061B68002B03D0024BFFF732
:10112000DDFF10BD014BFAE73041014000410140B5
:1011300070B514001D00FFF7EBFF2800FFF79EFFBE
:10114000002C00D170BD01210D2000F025F9F9E738
:10115000F0B5D6464F464646C0B5D0231B061F689D
:10116000BA001D4BD3589846002F03D01B4B99460D
:10117000002623E01A4B9946FAE724090135002C92
:101180001BD033000833AB4217D90F231A0022407B
:1011900092462342F1D0BB00124A9A580123AB4039
:1011A0001342EAD151462800FFF78CFF4346002B3B
:1011B000E3D051462800C047DFE708361D2E06D889
:1011C000F30808339B004A469C583500D7E7E0BC3B
:1011D000BA46B146A846F0BDB40C002030410140EB
:1011E00000410140A80D002010B501238340D0220A
:1011F0001206936293610521FFF70EFF10BD0000F8
:10120000034B1B6802201840431E9841C0B2704730
:1012100000C00640EFF3108072B6034B1B68002B32
:10122000FBD0BFF35F8F70472C0100D0BFF35F8FFF
:10123000024B00221A6080F3108870472C0100D006
:10124000F8B506000C001500FFF7E4FFE308F718F7
:10125000F15C07222240012393400B4205D1DBB20F
:101260000B433B70FFF7E2FFF8BD2100280002F0BE
:1012700049F80000002307E0054A9A189200BFF3DE
:101280005F8F0021116001331F2BF5D97047C046D5
:1012900040000034054A1078431CDBB21370172B52
:1012A00002D9130010221A707047C046390200207C
:1012B000074B9B68103080001950BFF35F8FBFF35E
:1012C0005F8F044B0021196082F310887047C0467D
:1012D00000ED00E0240100D010B5091A081F0A4BE8
:1012E0009C466144094A914208D8C30706D440107D
:1012F0004005400D064B184380B210BD054B064A11
:10130000A321064801F064FFFC070000FE0F000067
:1013100000E0FFFFC865001038680010F865001095
:1013200010B5091A04394C08090B08D14905490DB3
:10133000064A11430180064B2343438010BD054BF1
:10134000054AAB21054801F043FFC04600F0FFFF0E
:1013500000F8FFFF546600100C680010F8650010DC
:1013600001238340034A10681840431E9841C0B2CD
:101370007047C04600E100E0002904D0034B18602C
:10138000034B18607047034B1860FBE780E200E0F6
:1013900000E100E080E100E010B501238340180087
:1013A000FFF7EAFF10BD0000024B9B681030800081
:1013B000C058704700ED00E070B504000D00EFF379
:1013C000108672B60C4B1B68002BFBD0BFF35F8FEF
:1013D0002000FFF7E9FF094B984201D0A84205D150
:1013E000320029002000FFF763FF70BD044B054A5F
:1013F0008621054801F0ECFE240100D0CD0100104B
:10140000646600106C680010F8650010F0B5DE46E8
:1014100057464E464546E0B589B0814601911500D4
:10142000EFF3108A72B6744B1B68002BFBD0BFF32E
:101430005F8F724B0027DF57002F40DB7C00E419E1
:10144000A4006F4824180622A2566C4B1A706D4BEC
:101450009A684B4610339B00D35898461E001B1ABF
:101460002F2B38D9684B98452FD105AE674B338069
:101470007B009B46D8198000614B9846404402305F
:101480006349FFF729FF7080624BB380FF23B3717C
:10149000F571019B07935F44BF0047440ECE0EC712
:1014A00001231C43A046524641464846FFF700FF31
:1014B00009B0F0BCBB46B246A946A046F0BD564BAB
:1014C000564AD721564801F083FE564B534ADE2137
:1014D000534801F07DFEC04340440C2103F03EF828
:1014E000002912D101239E43B34633000026DA7946
:1014F000AA4211D90621595600290CDB4A0052187C
:1015000092001E003E4B9B18F1E7474B434AEA21ED
:10151000434801F05DFE1E00002E3AD005AB434A61
:101520001A80813A5A800623F3560293002B17DA69
:101530003F4805AB9B469880029A9A71DD71019AEB
:101540000792301D2100FFF7C7FEB080B7717B0006
:10155000DB199B002A4FFF185B4607CB07C7A2E7A2
:101560007800C0198000264BC0180430321DB388A3
:10157000D90A1C2907D15B055915023149005118B8
:10158000FFF7AAFED5E72B4B2B4AB121244801F0E7
:101590001FFE05AE1D4B33807B000293D8198000DF
:1015A000174A9046020042440392901C1849FFF7E4
:1015B00093FE7080039A101D5946FFF78DFEB08090
:1015C0001E4B5A464146521A524153431B0DB371AA
:1015D000F571019A0792029B9C466744BF004744FD
:1015E0000ECE0EC7114B5A461380813B5380012308
:1015F0001C43A04657E7C046240100D0D60F002068
:101600003C02002000ED00E0CD01001000A1FFFF32
:101610006C02002001BDFFFF9C66001054680010A2
:10162000F8650010C4660010EC6600100148000068
:1016300001BD00006067001044680010AAAA000005
:10164000F0B5CE46474680B583B006000D00EFF3F7
:10165000108872B6564B1B68002BFBD0BFF35F8F10
:10166000544B9A6834001034A300D758524B9F4211
:1016700007D0AF4200D198E00197504BFB1A2F2BB7
:1016800009D9424639003000FFF712FE03B0C0BC52
:10169000B946B046F0BD3000FFF762FE814600213A
:1016A0003000FFF779FEBFF35F8FEFF3058100296C
:1016B00001D08C4211D10123019C9C430022A368DC
:1016C000AB4212D00622A256002A0DDB53009B1813
:1016D0009B002200394CE418F1E73621384B394A97
:1016E000FF31394801F074FD2200AB4256D1062586
:1016F0006557002D38DB6B005B199A002F4B9B1848
:101700009A68A260DA79E27106229A56A2719B79F0
:101710005BB2002B0FDA2D48A0806B005B199B0099
:10172000264AD3182A4A1178997115704946300013
:10173000FFF732FEA5E7201D6B005B199B001F4AD7
:101740009B181A1D9B88D90A1C2907D15B055B15BC
:10175000023359005118FFF7BFFDDDE71D4B1E4A4C
:10176000B121194801F034FD002912D1002A0ED010
:10177000FF239371194B9380154A1378A371184B6B
:101780000E49641A644163431B0D1370CEE70A4F80
:10179000F2E7201D1349FFF7C3FDC7E76A21124B8B
:1017A000084AFF31084801F013FD034F69E7C046BE
:1017B000240100D000ED00E0CD0100103C0200202B
:1017C0007867001024680010F865001001BD000063
:1017D000D60F0020606700104468001001BDFFFFB5
:1017E000AAAA000076020020AC67001070B50121A3
:1017F00001432E4BCB1A2F2B28D8EFF30583002B58
:101800002BD0EFF3108C72B6294A1268002AFBD055
:10181000BFF35F8F274A0400244D641B6441624379
:10182000120D54B2244A92689B00D2588A421BD0AF
:101830000022032A32D853009B189B001B49CB1867
:101840009B795BB2A3421FD00132F2E7C7211B4B49
:101850001B4A49001B4801F0BBFC92211A4B184A55
:10186000FF31184801F0B4FC134A92681749D1506F
:10187000174B1A7882711C70BFF35F8F0C4B0022DC
:101880001A608CF3108870BD0D0053009918890000
:101890006918FF268E710F4A8A80E9E7D1210E4B25
:1018A000074A4900074801F093FCC0463C0200206B
:1018B000240100D0AAAA000000ED00E0B4670010E7
:1018C000F0670010F8650010DC670010CD01001013
:1018D000D60F002001BDFFFFE86700100022044B77
:1018E00002E0044902C30132072AFAD97047C04610
:1018F00000E400E080808080024B9C4661448900C7
:10190000016070474000003410B50400FFF7C2FCCE
:1019100001002000FFF7F0FFFF232371BFF35F8F6B
:1019200010BD10B50400FFF7B5FC01002000FFF763
:10193000E3FFFF23237100236371BFF35F8F10BDAB
:1019400070B505000C00080000F0D6FE0949200023
:1019500000F016FEFFF79EFC074B9C46604480009B
:1019600068602C75D0231B061B786B75A400034B95
:10197000E55070BD851C001040000034980D00201B
:101980000A4B1A68EFF3108172B61368002BFCD073
:10199000BFF35F8F054B1B68BFF35F8F00221A6098
:1019A00081F3108840BF002000217047B40F002051
:1019B00010B5002922D003681B7B99421ED8174B13
:1019C0009C466144090183689C4661440C684968EF
:1019D000002A19D003681B7B9A4215D883680F48E8
:1019E0008446624412019A1810685368020001206C
:1019F0008B4201D80ED00020C0B210BD084B094A5E
:101A00003C21094801F0E4FB054B064A3C2106480D
:101A100001F0DEFBA242EFD8EDE7C046FFFFFF0F6B
:101A2000406A0010C06C0010EC69001010B500296D
:101A30001ED0037B99421BD84B005B18033B046804
:101A4000A4466344002919D0002A1DD0914221D018
:101A5000002A25D0047BA24222D8046850008018B6
:101A6000033820188170197800291FD11A7010BD11
:101A7000104B114A6821114801F0AAFB104B114A82
:101A80006F310E4801F0A4FB0F4B0E4A70210B483A
:101A900001F09EFB0D4B0B4A7121084801F098FBA9
:101AA000044B054A6821054801F092FB41701A7009
:101AB000DDE7C046646A00102C6D0010806A0010DB
:101AC000E86A0010086D0010F46A0010006B001046
:101AD00070B506000D001400002914D0002A14D09F
:101AE000806873689847002806D0220029003000DB
:101AF000FFF79CFF280007E02A0021003000FFF7D5
:101B000095FF200000E0100070BD0800FCE7000019
:101B1000F0B583B00500009201930AAB1C780BABC3
:101B20001F78002C26D003685A7B944207D10123EA
:101B3000002B19D1002C3BD1200003B0F0BD002CAC
:101B40000CD01A7B944209D81A6863001B19033B16
:101B5000D3189B78002BEBD00123E9E73E4B3F4A9B
:101B600068213F4801F034FB3E4B3F4A67213F4824
:101B700001F02EFB03689C7B002CDBD012D01A7B7B
:101B800094420FD862001219033A19688C466244D5
:101B900051789973002900D1D97300239370537041
:101BA0001370C7E72C4B2D4A68212D4801F010FB1C
:101BB000002C3AD02B681B7B9C4236D82C4BE31868
:101BC0001B01AA6894466344009A1A60019A5A60FD
:101BD000089A9A60099ADA602E68002C2BD030D0CF
:101BE000337B9C422DD863001B19033B326894461B
:101BF000634400229A705A701A70717B2200300080
:101C0000FFF766FF7073844200D095E7287D009A45
:101C1000019B00F0FDFC061E01D0002F17D00C9B8D
:101C2000002B00D188E71E7086E7124B124A3C2138
:101C30000E4801F0CDFA114B114AA521084801F0D8
:101C4000C7FA054B054A6821054801F0C1FA286822
:101C5000210000F015FFE2E7646A00102C6D00100F
:101C6000806A0010186B0010386D0010EC690010CD
:101C7000FFFFFF0F406A0010C06C0010E869001001
:101C80001C6D0010F0B5DE4657464E464546E0B5A1
:101C90008BB00990002308938200B54BD6583700CB
:101CA00052E0B44BB44A3F21B44801F091FAB44B2E
:101CB000B44A3C21B44801F08BFA002901D1002834
:101CC00069D10021404600F0D1FEA04219D12A6816
:101CD0006B6806920793AB689846EB689A46434652
:101CE000002B14D0002C18D03B681B7B9C4214D8CE
:101CF000631EFA68D35C08931B0218433861002006
:101D000015E0A24BA24A8E219F4801F061FAA14B37
:101D10009F4A92219C4801F05BFA994B9E4A4121CF
:101D2000994801F055FA00239A46984600207B68AE
:101D3000BFF35F8F00221A6086F310884346002BA2
:101D400032D1002800D10CE100F0FAFB02000B1E9A
:101D5000A7DB00200021069007917868EFF310863A
:101D600072B601680029FCD0BFF35F8F39688846DE
:101D70004C7B002CD7D09AD0097B8C4297D88749CE
:101D800065182D01B9688C46654428686968801A11
:101D90009941002991DD2A686B68099800F038FCA8
:101DA00000239A469846C2E7089B1B0223439946A4
:101DB00051461800C04705000E007A68EFF3108BFB
:101DC00072B6136859424B41D9B2002BF9D1BFF317
:101DD0005F8F002E1EDB002E46DD3B69002B47D0B7
:101DE0004B456DD100F0ACFB02000B1E6EDB5219AF
:101DF0007341002B70DB002B72DB00210491013159
:101E00000391029451460191414600913800FFF739
:101E10007FFE4CE03B69002BDDD04B4514D1069A88
:101E2000079B521BB341002B14DB002B16DB002158
:101E30000491013103910294514601914146009170
:101E40003800FFF765FE32E0554B514AA1214E485C
:101E500001F0BEF901225242524BE6E7454B464A99
:101E60003F21464801F0B4F9002E01D1002DB4D134
:101E70003B68002C50D05A7B944237D10121002975
:101E80004AD1DA7B002A4DD19A7B002A03D1DA7B32
:101E9000002A5AD19C73DC73002C5CD03B681B7BFE
:101EA0009C4258D8FA68013C135D01331355002356
:101EB0003B617A68BFF35F8F13608BF3108843E751
:101EC000374B334AA421304801F082F9294B2A4A82
:101ED0003F212A4801F07CF901225242314B8AE726
:101EE000244B254A3F21254801F072F9002C0DD0E2
:101EF0001A7B94420AD862001219033A1868844681
:101F000062449278002ABAD00121B8E7264B274ACA
:101F10006821274801F05CF9264B274AF62124481E
:101F200001F056F9002A0AD0197B8A4207D85100DD
:101F30008A18033A19688C4662445470A4E71A4B15
:101F40001A4A68211A4801F043F91C4B1A4AFB212E
:101F5000174801F03DF90A4B0F4A41210A4801F0A8
:101F600037F90BB0F0BCBB46B246A946A046F0BD5F
:101F7000980D0020FC6800108C6C0010186900108F
:101F8000406A0010C06C0010EC690010406B00103B
:101F9000A46C0010586B0010E46C0010FFFFFF0FE2
:101FA000646B0010FFFFFF7F646A00102C6D00104F
:101FB000806A0010A06B0010F86C0010C46B001059
:101FC00010B50C4B5B68002B04D00A210A48FFF7C0
:101FD00093FC10BD074C2300084A1021206800F034
:101FE00055FC032000F0A0FA03212000FFF7A8FC15
:101FF000EBE7C04684020020B40F0020B1190010A6
:1020000010B5064B5B68002B01D0044810BD044B93
:10201000044A5E21044801F0DBF8C0468402002037
:10202000D86B0010CC6C0010EC690010F0B5DE46E7
:1020300057464E464546E0B58BB0804616001F0019
:10204000149B9A46159B994616AB1B789B461F23FB
:1020500002AA9446634400221A702BE0002809D09B
:1020600042461268127B904204D8421E4146C9681B
:102070008A5C41E0404B414A4121414801F0A8F8C7
:1020800007984CE0361BAF41002F07DB002F11DA19
:102090003C4B3D4A3F213D4801F09AF801267642EB
:1020A0003B4FF3E7374B384A3F21384801F090F86F
:1020B000002F4FDB43465A68EFF3108472B6136863
:1020C00059424B41D9B20791002BF8D1BFF35F8F32
:1020D0001F3302AA9446634404930023039302939C
:1020E0004B4601935346009332003B004046FFF7B6
:1020F0000FFD031EB2D1020041464968BFF35F8F56
:1021000000250D6084F31088002B29D01F2302A91D
:102110008C4663441B78002BB2D112021043002B73
:1021200020D05B46002B1DD04946D04704000D004F
:1021300003000B431DD00029A4DB00F001FA0600C8
:102140000F1EAFDB36196F41002FB1DA0126764240
:102150000F4FADE70B4B0C4A3F210C4801F038F80C
:10216000012040420BB0F0BCBB46B246A946A04697
:10217000F0BD0798F6E7C046406A0010E46C001016
:10218000EC690010FC6800108C6C001018690010DD
:10219000FFFFFF7FF8B504004268EFF3108572B6C9
:1021A000136858424341D8B2002BF9D1BFF35F8F77
:1021B000CBB22268567BB3421BD10120002848D005
:1021C000206988422BD0090AC9B2002B2ED0206882
:1021D000007B83422AD8581EE668305C88422BD0A8
:1021E00000206368BFF35F8F00221A6085F31088B8
:1021F000F8BD002B0DD0167BB3420AD85E00F6184E
:10220000033E1768BC466644B678002ED6D001203F
:10221000D4E7134B134A6821134800F0D9FF9521E6
:10222000124B134A4900134800F0D2FF124B134AD5
:102230004121104800F0CCFF1900100000F020FCF4
:102240000028CED132210E4B094AFF31094800F057
:10225000BFFF23698B42C4D100232361C1E7C0467D
:10226000646A00102C6D0010806A0010FC6B001076
:10227000746C0010EC690010406A0010E46C0010EF
:10228000206C0010F0B587B006000F00EFF3058357
:10229000002B1FD106246442E517A4197D418D420D
:1022A00002D803D1844201D900240025002D14DB7B
:1022B0000494059500F044F902000B1E13DBA41AE8
:1022C0009D41002D17DC14D03000390000F044F996
:1022D00007B0F0BD234801F015F8234B234A3F21F6
:1022E000234800F075FF204B204A3F21204800F092
:1022F0006FFF002CE8D0FFF783FE002302930193C9
:102300001C4B0093049A059BFFF790FE002818DAF7
:10231000DAE7002300E00023002BD5D1164B1A6822
:10232000EFF3108172B61368002BFCD0BFF35F8F00
:10233000114B1B68BFF35F8F00221A6081F3108876
:1023400020BF0499059A0D4B5B6A9A42E3D80B486B
:10235000806A884203D29A42DBD00123DCE7012362
:10236000DAE7C046246C0010FC6800108C6C00108A
:102370001869001081190010B40F002000400540BA
:1023800070B504000D0000F0DBF802000B1E0ADB44
:10239000200029008018594100290ADB00290CDBA4
:1023A000FFF770FF70BD084B084A3F21084800F056
:1023B0000FFF012040420749F0E7034B034A3F214A
:1023C000034800F005FFC046FC6800108C6C00104C
:1023D00018690010FFFFFF7F10B5FA22920000235A
:1023E000002102F051FCFFF7CBFF10BD70B584B0A7
:1023F00005000C00EFF30583002B1ED1FFF700FE54
:10240000002302930193224B00932A002300FFF73D
:102410000DFE061E23DD20BFFFF7F2FD3100FFF7A2
:10242000B9FE1C4B5B6A9C422DD81A4A926AAA429A
:102430002CD29C4225D0012026E0164B5B6A9942A3
:1024400009D8144A926A824207D2994201D00120E7
:102450001AE0002018E0002016E0012014E00D4BE7
:102460005B6A9C4209D80B4A926AAA4207D29C42F4
:1024700001D0012008E0002006E0002004E0012057
:1024800002E0002000E0002004B070BD0120FBE766
:10249000811900100040054070B5EFF30580103839
:1024A000EFF3108C72B61A4B1B68002BFBD0BFF3F6
:1024B0005F8F01221300834016494B6316490B605E
:1024C000164909780C00C440224214D0114A546ABB
:1024D0008200134D5259944206D38200114C125976
:1024E00099430E4B197007E00A4A031D9B00995847
:1024F0009950002200E00022BFF35F8F044B0021BF
:1025000019608CF31088002A00D0904770BDC04637
:10251000280100D0004005403C700540D90F002044
:10252000BC0F0020A40C002010B50100024A034893
:10253000FEF786FE10BDC046506D0010D50F00207E
:10254000044B5B6A034A906A1900536A9942F9D1B5
:102550007047C04600400540084B5B6A01E0074BEE
:102560005B6A8B42FBD301E0044B5B6A8B4203D175
:10257000024B9B6A8342F7D37047C0460040054038
:1025800070B504000D00EFF3108672B61B4B1B688C
:10259000002BFBD0BFF35F8F002D1CD02000FEF777
:1025A00003FF174B83420BD019002000FEF704FFF6
:1025B00001212000FEF7F0FE0123A340114A136021
:1025C000A400114BE550BFF35F8F0C4B00221A6043
:1025D00086F3108870BDA2000B4B0021D150012260
:1025E000A2400A490B7893430B7005492000FFF77E
:1025F00027F800212000FEF7CFFEE4E7280100D0F5
:102600009924001038600540A40C0020D90F002048
:10261000F0B5DE4600B584B00400150001921E003E
:102620000293FFF78DFF03958E4202D84ED185426B
:102630004CD9EFF3108B72B6274B1B68002BFBD0E5
:10264000BFF35F8F254A17780125A540EBB23B43C6
:102650001370234B5D63221D92000199D150A2009B
:102660002049029850501B6A2B4212D11C4B1B6C04
:102670002B4208D00020BFF35F8F174B00221A6057
:102680008BF3108823E0184B184AC521184800F036
:102690009FFDFFF755FF8E4214D802D1039B834262
:1026A00010D80E4B1B78BB420ED00D4B1D625D63E4
:1026B0001F2004400123A3400E4A1360074B1F70E4
:1026C0001E38D8E70020D6E70120D4E7012004B067
:1026D00080BCBB46F0BDC046280100D0D90F002009
:1026E00000400540BC0F0020746D0010F86D001014
:1026F000986D001080E200E0EFF3108C72B60B4B87
:102700001B68002BFBD0BFF35F8F01238340084A77
:10271000136208490A789A430A70BFF35F8F034B2C
:1027200000221A608CF310887047C046280100D040
:1027300000400540D90F002010B500291ED0037BB2
:1027400099421BD84B005B18033B0468A4466344C2
:10275000002919D0002A1DD0914221D0002A25D06D
:10276000047BA24222D80468500080180338201845
:102770008170197800291FD11A7010BD104B114AB1
:102780006821114800F024FD104B114A6F310E48AA
:1027900000F01EFD0F4B0E4A70210B4800F018FD93
:1027A0000D4B0B4A7121084800F012FD044B054AFD
:1027B0006821054800F00CFD41701A70DDE7C04645
:1027C000646A0010206F0010806A0010E86A001030
:1027D0000C6F0010F46A0010006B001070B506005A
:1027E0000D001400002914D0002A14D080687368EA
:1027F0009847002806D0220029003000FFF79CFFF0
:10280000280007E02A0021003000FFF795FF200094
:1028100000E0100070BD0800FCE7000010B50023C8
:10282000437301338373037BC3730123027B9A4297
:1028300014D9002B0CD0027B934209D85A00D2182D
:10284000033A01688C4662440133DBB25370EDE712
:102850000B4B0C4A68210C4800F0BAFC002A09D046
:10286000924207D8016853009A18033A8A18002345
:10287000537010BD024B034A6821034800F0A8FCC6
:10288000646A0010206F0010806A001010B5017398
:1028900042608360FFF7C2FF10BD000070B5040006
:1028A000081E00D170BD002934D0237B994231D855
:1028B0004B005B18033B2268944663445A78002A15
:1028C000F0D02DD0237B9A422AD853009B18033B8B
:1028D00021688C4663445D7800215970002825D01A
:1028E000237B984222D843001B18033B21688C4667
:1028F00063440021597001002000FFF76FFF0600BC
:1029000029002000FFF7CAFF020031002000FFF776
:1029100065FFC7E7084B094A6821094800F058FCE1
:10292000054B064A6821064800F052FC024B034A58
:102930006821034800F04CFC646A0010206F00100E
:10294000806A001070B505000C00160000292FD019
:1029500034D0037B994231D84B005B18033B0268AB
:10296000944663445A78002A2ED19A78002A31D1AD
:102970001978FFF793FF0300002E0AD0EA7B002AA4
:102980002ED1AA7B002A03D1EA7B002A3BD1AC736B
:10299000EC73002B3DD1002C4FD02B7B9C424CD8AC
:1029A0002B6861000C19033C1C190023637070BD77
:1029B000254B264A3821264800F00AFC254B264A9A
:1029C0006821264800F004FC254B204A3A21204883
:1029D00000F0FEFB234B1D4A3B211D4800F0F8FB95
:1029E000002A0AD0297B8A4207D851008A18033A64
:1029F00029688C4662445470C3E7164B164A682116
:102A0000164800F0E5FB184B104A4221104800F030
:102A1000DFFB002B0BD02A7B934208D843001B1806
:102A2000033B2A689446634400229A70B3E7094B3B
:102A3000094A6821094800F0CBFB064B064A682189
:102A4000064800F0C5FBC046146E0010F86E00107A
:102A50001C6E0010646A0010206F0010806A001065
:102A6000746E00109C6E0010C46B001070B50400F2
:102A70000A00457B2900FFF765FF6073280070BDE1
:102A800070B50400002967D0437B8B420ED000292B
:102A900011D0037B99420ED84B005B18033B0268B0
:102AA000D0188378002B0CD1002056E00121FFF7CD
:102AB000DDFF012051E0294B294A6821294800F017
:102AC00087FB002B20D0227B93421DD85A00D318BD
:102AD000033B2268D2182568EB5C8B421AD0002B8E
:102AE0001BD0227B934218D85A00D318033B22688C
:102AF000D21853788B4216D0002BF0D11A4B1B4AB8
:102B00006B211B4800F064FB144B154A68211548E3
:102B100000F05EFB4378137007E0104B104A682109
:102B2000104800F055FB43785370002383704370C6
:102B300001222000FFF706FF0200617B814205D0E1
:102B40002000FFF74BFE6073012006E0094B074AA7
:102B50007121074800F03CFB002070BD646A001042
:102B6000206F0010806A0010E8670010E06E00100F
:102B70001C6E0010C06E0010F8B504000CE0E78970
:102B80009F421AD1002A38D02368BFF35F8F0025F7
:102B90001D6086F3108820BF2568EFF3108672B69B
:102BA0002B68002BFCD0BFF35F8F25896389EB1A5C
:102BB000E5D5E7890137DB19E1E7BD4217D8A289DE
:102BC00055436368581902F0E3F8238901339BB237
:102BD000E289934200D9002323812368BFF35F8FEA
:102BE00000221A6086F3108840BF0120F8BD074B11
:102BF000074A1921074800F0EBFA2368BFF35F8FFB
:102C00000021196086F310881000EFE72C6F001088
:102C1000A06F0010486F001070B5040008000BE0B2
:102C2000002B1AD1002A39D02368BFF35F8F00210F
:102C3000196086F3108820BF2168EFF3108672B602
:102C40000B68002BFCD0BFF35F8F238965895B1B6A
:102C5000E6D5E18901315B18E2E7E3899D4217D8A7
:102C6000A28955436368591902F092F863890133C8
:102C70009BB2E289934200D9002363812368BFF3AA
:102C80005F8F00221A6086F3108840BF012070BD5C
:102C9000074B084A1921084800F09AFA2368BFF345
:102CA0005F8F0021196086F310881000EFE7C0469F
:102CB0002C6F0010A06F0010486F001070B504005A
:102CC0000D0016001900FEF717FE701C290002F017
:102CD0003FF86060E681A58100232381638170BD98
:102CE00010B50022FFF748FF10BD10B50022FFF716
:102CF00093FF10BD70B504000D00062000F08EF9A2
:102D0000C000290001F02AFCC60908D00E4B9E42E3
:102D100017D87F23184001303500460800E0012510
:102D20006562A6622C348020800104430023236066
:102D3000062000F073F98000A901891901F00EFC4A
:102D400070BD0026014DEBE7FEFF0000FFFF000015
:102D5000002909D00A22064B9C4660444342584150
:102D60004000044BC252704780225200F3E7C04635
:102D70000080FCBFCC0F002070B505000C000620C1
:102D800000F04CF9002829D0164B9D4227D0802214
:102D9000D203154B1A60154B1A60154B9B68110036
:102DA0009943FAD100212800FFF7D2FF2100280023
:102DB000FFF7A0FF2C002C34E96A60224A406E2104
:102DC000114080225201224311600A4B2B63802361
:102DD0009B01234310221A600323AB6470BD802241
:102DE0001204D6E70080034000E0004000F00040FD
:102DF00000C0004001030000064B9A6A8369DB06AD
:102E000006D5044B9B6A9B1A8B42F7D9002000E041
:102E10000120704700400540F8B5DE4657464E4653
:102E20004546E0B505000F0092460A9A93424ED3FC
:102E30001A0E91461E020A9A00233000494601F0FC
:102E4000CBFB80466C006419A4002F4B9C46644465
:102E50006368834200D260602B1FDBB29B46012B6C
:102E60003BD9C0239B012343802212011A60AB008F
:102E7000264A9958002905D0506901F06FFB0130AE
:102E80000138FDD153465A0123685A40E0231A40C5
:102E900080235B0123431A605A46012A28D98023E4
:102EA0009B012343802212011A604346636042461D
:102EB00000233000494601F08FFBAD00134B585101
:102EC0000120F0BCBB46B246A946A046F8BD104B57
:102ED000104A2D21104800F07BF9012FC1D1C023E9
:102EE0009B01234303221A60A368DB07FCD5C9E7D3
:102EF0002168794003220A401A60A2680123BB407E
:102F00001342FAD0CBE7C04600800040C40C00203A
:102F1000AC6F001020700010C06F001030B583B08F
:102F20000C2000F017F9FEF76BF900280DD00023F4
:102F300004E099002D4A2E4888500133092BF8D916
:102F40002A4B2C4A5A6203B030BD2B4B00229A67A1
:102F500000F008F9294B01221A60274B5B6C012B0A
:102F6000FBD1274B03221A60234B9B6B012BFBD118
:102F7000013300930433234A0121234800F054F81D
:102F800005230093214A0121214800F04DF8214BEF
:102F90000093002202210420FFF73EFF1E4D009502
:102FA0002B00002201210520FFF736FF104C009472
:102FB0002300002200210720FFF72EFF00942300AA
:102FC000002200210820FFF727FF0A4B009323006F
:102FD000002200210920FFF71FFF00952B0000228F
:102FE00000210620FFF718FFADE7C046C40C002003
:102FF000006CDC021BB70000008000403CB00040C9
:1030000030B00040002F685900800240008C864795
:1030100000C00240001BB700405973078000014BFD
:10302000C0587047C40C0020F0B5C64600B5040077
:103030000D00170098460C2001F090FA0600394B5D
:10304000FA18394B9A4241D843011B1A9901C91AFF
:10305000C90009188901380001F080FA0200103A0D
:1030600098235B009A4237D84346013B062B39D858
:10307000069B013B062B35D83F09B74238D3434660
:103080001E04069B1A0316432368002B36DB274BCE
:103090009C4244D080225201254B1A60254B1A6075
:1030A000254B9B6811009943FAD12560A060231D30
:1030B000C02292011A43212313602368002BFCDAFB
:1030C000E6600823136080BCB846F0BD1B4B1C4A69
:1030D00011211C4800F07CF81B4B194A1921194892
:1030E00000F076F8194B164A1C21164800F070F8CB
:1030F000174B134A2321134800F06AF822683F2334
:103100001340AB42C3D1A3681B051B0D8342BED144
:10311000E368EE22D2021340B342B8D1D3E7802253
:103120009201B9E780E84BD380F8A93200C0024091
:1031300000E0004000F0004000C00040307000108F
:103140007071001090700010EC7000100871001089
:103150005471001080239B000343014AD3627047DF
:1031600000800540064BAA2212011A602F22DA6065
:10317000044B054A1A60024B5B68002BFBDA704770
:10318000004002400060024000B0FA0000BEFDE7CF
:1031900003000A4A1268002A08D0084A1068C318B7
:1031A000074A9A4206D3054A13607047034A054905
:1031B0001160F2E701204042F7E7C046900D002081
:1031C00000000420DC0F002010B5FFF7DFFF000037
:1031D00010B582B00C001900002A0CD0084B002A50
:1031E0000BD00192009323000200064801F028FF53
:1031F0000120FFF7CBFF044BF1E7034AF1E7C0469C
:103200007C7100108C7100101463001070B52B4B92
:103210002B4A1A602B4B2C4A1A602C4B9A682A4B6B
:103220009343FAD12A4C01E008CC9847294B9C42A1
:10323000FAD3FFF773FE234B274A1A60234B9B6890
:10324000DB43DB01FAD1254B40229A675A671A67A4
:10325000DA66234C09E0234B234A86212348FFF7F3
:10326000B7FF2000FEF750FB0834214B9C4209D2E7
:103270002368002BF5D0012BEDD12000FEF751FB88
:103280000834F2E71B4CA1681B4DC022280001F056
:103290007FFDA560EFF30583002B00D000BEFDF796
:1032A000E9FFFEF71BFBFEF78BFE144C01E008CC98
:1032B0009847134B9C42FAD370BDC04600E00040D3
:1032C000BFCDFBFE00F00040FE7F3C0000C0004090
:1032D000380B0020480B0020FFFFFF0100F00140E9
:1032E000300B0020BC7100104C720010DC7100101B
:1032F000380B002000ED00E000000020480B00200B
:103300004C0B00200FB400B583B0084801F068FEF4
:10331000049B002B07D005A90191180001F070FE55
:10332000034801F05DFE0120FFF730FF3C72001002
:103330001C6200109A4200D288547047704710B542
:10334000002802D00B684968984710BD0100002092
:1033500007E083001B185B00501C08601078C01841
:1033600030380A681378303BDBB2092BF1D970474B
:10337000F0B5DE4657464E464546E0B583B0934627
:103380001F000C9B9A460D9C0E9B99460F9B9B071A
:1033900003D0B8460F00060022E00192A3468846FB
:1033A0004E46B9460700B44207D2551C4B4641462B
:1033B0002020B84701342A00F5E73D004F465C461F
:1033C000019B9B46B1464646B84637002E0007E0B3
:1033D000013C551C5346185D43463900B0472A004E
:1033E000002CF5D135003E0047460F9B9B0707D4C4
:1033F000100003B0F0BCBB46B246A946A046F0BDE3
:10340000B0464E46B9462F005D46531BB342EFD23D
:10341000541C4B4641462020B8472200F5E7F0B542
:10342000CE46474680B585B0944698460C9D0D9C87
:103430000EAB1B789946109A119B129EB7071CD4AD
:10344000002B0CD0F7070AD54F46002F02D10C37BE
:10345000374204D0013B02E030272F55013494421B
:1034600001D21F2CF8D9F70707D59C4205D21F2C93
:1034700003D830272F550134F5E7F70615D5770522
:1034800005D4002C03D0944224D09C4222D00F9A21
:10349000102A2BD00F9A102A30D00F9A022A35D03A
:1034A0001F2C02D830222A5501341F2C05D84A4639
:1034B000002A31D02D222A5501340396029301941B
:1034C000009543466246FFF753FF05B0C0BCB946BE
:1034D000B046F0BD621E012C06D00F9F102F01D008
:1034E0001400D4E7023CD2E71400D0E7B206D1D4EE
:1034F0001F2CCFD878222A550134D1E7B206CCD57B
:103500001F2CCAD858222A550134C9E71F2CC7D806
:1035100060322A550134C3E7720703D52B222A559E
:103520000134CAE73207C8D520222A550134C4E73E
:10353000F0B5DE4657464E464546E0B593B0814667
:103540008A46089209931CAB10CB1B789B461E9DA4
:10355000219B9846002C03D1102342469A43904663
:103560008023DB0046461E4042461A4212D0002C01
:1035700022D000260EE03033D9B2771C0AAB995521
:103580002900200000F0EAFFAC4216D31F2F14D808
:103590003E0004002900200000F0E0FFCBB2092B20
:1035A000E9D94246920605D54121C918C9B20A395E
:1035B000C9B2E2E76121F8E7270043460693209B62
:1035C00005931F9B049303955B46029301970AABF7
:1035D0000093099B089A51464846FFF720FF13B015
:1035E000F0BCBB46B246A946A046F0BDF0B5DE46EB
:1035F00057464E464546E0B595B0089009910A9267
:103600000B931E9E1F9C20AB1B789B46229B9946CA
:10361000239D269B9A463300234303D11033524601
:103620009A4392468023DB0057461F4052461A4277
:1036300019D0330023432DD0002714E03033DAB201
:103640007B1C98460CABDA554A462B003000210013
:1036500000F0C2FFA5421FD819D043461F2B1BD82C
:10366000474606000C004A462B003000210000F0BF
:10367000B3FFD3B2092BE1D95246920605D54122B8
:10368000D218D2B20A3AD2B2DAE76122F8E7B145EB
:10369000E3D901E00023984653460693259B059302
:1036A000249B04934B4603935B460293434601934A
:1036B0000CAB00930B9B0A9A09990898FFF7AFFE91
:1036C00015B0F0BCBB46B246A946A046F0BD00000E
:1036D000F0B5DE4657464E464546E0B591B08346C6
:1036E0008A460C9298461A9C08941B9D09952200C4
:1036F0002B002000290001F0EAF9002800D0E5E0C5
:1037000001225242D74B2000290001F0DBF90028AA
:1037100000D0DBE001225242D34B2000290001F00F
:10372000BBF9002800D0D1E000220023089E300021
:10373000099D290001F0B0F9002800D0DDE00898CB
:103740000999069007918023DB001E9A1A400D927A
:103750001E9A1A4201D106231C9306980799040069
:103760000D000A000600024300D1D1E0080D40051B
:10377000400DBE4CA44660440A03120BBC4B1343DD
:103780001F0001F0B7F9BB4ABB4B01F046F9BB4A39
:10379000BB4B01F023F904000D000022B94B3000AF
:1037A000390001F016F9B84AB84B01F036F90200B9
:1037B0000B002000290001F011F901F0B3F9814656
:1037C00001F098F904000D00B14AB24B01F025F95F
:1037D0000022B14B01F002F901F0A4F90600AF4A52
:1037E000AF4B2000290001F018F904000D00300053
:1037F00001F080F9AB4AAC4B01F00FF902000B006D
:103800002000290001F0E5F804000D0002000B0083
:1038100001F003F90A900B91A44BF31800261F0541
:1038200022002B002000290001F0D8F80E900F9103
:1038300022002B0000208021C90501F0CAF80400F5
:103840000D0000229A4B0A980B9901F0CCF8002247
:10385000984B01F0C3F802000B000A980B9901F095
:10386000C2F80022944B01F0B9F802000B000A984C
:103870000B9901F0B8F802000B002000290001F0BC
:10388000ADF802000B000E980F9901F0ACF8002281
:10389000774B01F0A3F832003B0001F0BEF80600C0
:1038A0000F0004000D00069A079B01F00BF9002899
:1038B00030D001235B429C46E14400227D4B300026
:1038C000390001F090F804000D0023E01E9B0493E2
:1038D0001D9B03931C9B0293089A099B00920193E2
:1038E00043460C9A5146584600F0FCF811B0F0BC23
:1038F000BB46B246A946A046F0BD0023002406936D
:103900000794069680231B069C46654407951AE794
:10391000002399464B466333C62B1ED804261E9BB4
:103920001B0526D52B0023430FD0644A644B069811
:10393000079901F0BFF8002879D00022614B069862
:10394000079901F0A9F8002871D01C9B4B4506DDB2
:103950004A46981A431E1C9303E00526DFE700231E
:103960001C938023DB001E9A1A431E92002600231C
:1039700099461D9B9E4264D29F1B02231E9A1A40A9
:103980000A921E9A134202D0002E00D000274B4606
:10399000002B07D022002B000698079901F023F88E
:1039A00006900791002200230898099901F074F805
:1039B000002848D1444B1E9A1340049303971C9B44
:1039C0000293069B079C0093019443460C9A514630
:1039D000584600F087F8002E00D187E71E9B9B0613
:1039E0003DD54525441C4346020051462800D84792
:1039F0004B46DA179B18534005220592013E049668
:103A0000002203920A3202924A46D00F019000939C
:103A10004346220051465846FFF78AFD0A9B002B79
:103A200000D163E702005F460C9E1D9D54E01C9B85
:103A3000002B9ED00D9B002B9BD01C9B013B1C930D
:103A400097E7002799E7069C079D22002900802020
:103A50000006844661440B0006920793AAE7652599
:103A6000C0E7C046FFFFEF7FFFFFEFFF01FCFFFF56
:103A70000000F03FFB799F501344D33FB3C8608BE5
:103A8000288AC63F0000F83F61436F63A787D23F93
:103A900071A379094F930A400000E03F1655B5BB6A
:103AA000B16B0240EF39FAFE422EE63FFF03000001
:103AB00000002C4000002440000018402D431CEB67
:103AC000E2361A3F80842E41FFF7FFFF541C434625
:103AD00051462020B8472200931BAB42F6D310007A
:103AE00004E7C046F0B5DE4657464E464546E0B5CB
:103AF00095B00690079193469946209F1E9A1F9B6A
:103B00001000190000F0E3FF002831D101225242D9
:103B1000BF4B1E981F9900F0BFFF002837D101222C
:103B20005242BC4B1E981F9900F0CCFF00283DD19B
:103B30000022B94B1E981F9900F0C4FF002850D1F5
:103B40000022B64B1E981F9900F0A6FF002848D10E
:103B5000002200231E981F9900F09EFF002850D1DC
:103B600000239846229B5B0500D4B6E0002458E071
:103B7000229B0393219B029303230193A84B009361
:103B80004B465A4607990698FFF7F2FB0EE1229B37
:103B90000393219B029304230193A24B00934B4672
:103BA0005A4607990698FFF7E3FBFFE00423229AA1
:103BB0001A4022990B4210D09B4B002A0FD00422AE
:103BC0002299039121990291019200934B465A4602
:103BD00007990698FFF7CCFBE8E0944BEDE703224A
:103BE000EEE7229B0493219B039302971E9B1F9C4D
:103BF000009301944B465A4607990698FFF768FDD3
:103C0000D4E01E9A1F9B0020002100F0E2FE1E90CF
:103C10001F9101239846A5E70CAB30221A55013FAE
:103C200001341F2C01D8092FF6D81E981F9900F0D7
:103C300079FF050000F05EFF02000B001E981F993F
:103C400000F0C7FEFA007A4B9B181A685B680A926C
:103C50000B9300F0E2FE0890099100F087FF060048
:103C600000F044FF02000B000898099900F0B1FE33
:103C70000890099100226F4B00F024FF00282ED0FD
:103C80000136300000F032FF02000B000A980B9959
:103C900000F008FF002801D001350026002F2CD1AC
:103CA000280000F027FF02000B001E981F9900F06B
:103CB00090FE06000F0000225E4B00F0EDFE002893
:103CC00046D100225B4B3000390000F0FBFE00289B
:103CD0003ED1EB073CD501353AE0062746E7002206
:103CE000544B0898099900F0D7FE0028D6D1002E31
:103CF00001D0F307D2D50136D0E7AA461F2C11D840
:103D0000013F0A21300000F029FC651C30310CAB6A
:103D100019550A21300000F021FC092E0ED90600A9
:103D20002C00EBE755461F2C0CD87B1E002F09D02A
:103D30000CAA302111551F000134F4E72B00554621
:103D40001C00F0E71F2C03D80CAB2E221A550134AF
:103D50001F2C10D80A21280000F0D8FB661C303137
:103D60000CAB19550A21280000F0D0FB051E01D02C
:103D70003400EDE734000323229A1340012B1CD0BA
:103D80001F2C06D84346002B32D00CAB2D221A55DF
:103D90000134229B0393219B029301940CAB00936B
:103DA0004B465A4607990698FFF7E2FA15B0F0BC61
:103DB000BB46B246A946A046F0BD219B002B13D0BE
:103DC0004346002B02D10C3313420FD0219B013B01
:103DD0002193190003E00CAB30221A5501348C42B8
:103DE000CED21F2CF7D9CBE72199F8E72199F6E736
:103DF000229B5B0704D50CAB2B221A550134C8E774
:103E0000229B1B07C5D50CAB20221A550134C0E7F5
:103E1000FFFFEFFFFFFFEF7F65CDCD4165CDCDC14A
:103E2000687200106C720010607200105C720010FA
:103E3000587400100000E03FF0B5DE4657464E468D
:103E40004546E0B593B082468B46904611930029D3
:103E500000D1EBE200275546119B1878002800D1CD
:103E6000E7E2252809D07C1C43463A005946A8477A
:103E7000119B013311932700EEE7013311930024C6
:103E8000119A11780B00203BD8B2102803D8830078
:103E9000D048C3589F460B00303BDBB2092B2CD9CE
:103EA0002A292FD000230A93119B1A782E2A39D061
:103EB00000239A46119A1378683BD9B2122976D812
:103EC0008B00C549CB589F4601231C4301321192F8
:103ED000D6E702231C4301321192D1E704231C438D
:103EE00001321192CCE708231C4301321192C7E73B
:103EF00010231C4301321192C2E711A8FFF726FAE2
:103F00000A90D1E71C9B1A1D1C921868002804DB3C
:103F10000A90119B01331193C6E702231C434342CD
:103F20000A93F6E78022D20014435A1C11925A7861
:103F30001300303BDBB2092B04D92A2A07D0002317
:103F40009A46B7E711A8FFF701FA8246B2E71C9B31
:103F50001A1D1C921868002804DB8246119B01334D
:103F60001193A7E70020F8E780235B002343511C4F
:103F7000119152786C2A01D01C0018E0C0239B00DC
:103F80001C430131119112E080232343511C1191F4
:103F90005278682A01D01C0009E0C0231C4301317B
:103FA000119104E080235B001C4301321192119BAC
:103FB00018780300253BDAB2532A00D92CE293008B
:103FC000864AD3589F4680239B001C43013211929E
:103FD000EDE780235B001C4301321192E7E778286C
:103FE00009D0582838D06F2838D0622838D010230C
:103FF0009C430A2600E01026582833D0692803D0B5
:10400000642801D00C229443630501D50122944316
:1040100069282AD0642828D0A30500D59FE0E305AD
:1040200000D5B8E0630600D4CAE01C9A111D1C91AB
:104030001168FF220A4005940A9B04935346039398
:10404000029600230193009243463A005946280005
:10405000FFF76EFA070027E01026CDE70826CBE72A
:104060000226C9E720221443C8E7A30520D4E305AC
:1040700050D4630666D51C9A111D1C911168FF224D
:104080000A40D317D118594005940A9B049353460C
:1040900003930296D20F0192009143463A0059468B
:1040A0002800FFF745FA0700119B01331193D3E66F
:1040B0001C9BDA1D07218A43110008311C911168ED
:1040C00053689C46DB170C930D930C9A0D9B1000C4
:1040D00048400E90624653400F930E980F990C9AE9
:1040E0000D9B801A99410E900F9108940A9B07939B
:1040F000534606930496002305936346DA0F029213
:104100000090019143463A0059462800FFF76EFAA5
:104110000700C9E71C9A111D1C911268D317D1180A
:10412000594005940A9B0493534603930296D20F79
:104130000192009143463A0059462800FFF7F8F9EA
:104140000700B1E7230605D51C9A111D1C91002319
:10415000D25E96E71C9A111D1C91126891E71C9B78
:10416000DA1D07218A43110008311C9108940A9B2B
:10417000079353460693049600230593029313680E
:1041800054680093019443463A0059462800FFF7CB
:104190002DFA070088E71C9A111D1C9105940A9BB3
:1041A00004935346039302960023019313680093EC
:1041B00043463A0059462800FFF7BAF9070073E76B
:1041C00023060DD51C9A111D1C9112681204120CA5
:1041D00031E7C04674720010B8720010047300100A
:1041E0001C9A111D1C91126825E746281AD01C9BA9
:1041F0000733072293431A0008321C9204940A9A48
:104200000392524602925C681B68009301944346F5
:104210003A0059462800FFF765FC0700119B01335F
:10422000119319E620231C43E1E7672801D04728B2
:1042300002D180231B011C43452801D0472801D10E
:1042400020231C431C9B0733072293431A00083288
:104250001C9204940A9A0392524602925C681B686C
:104260000093019443463A0059462800FFF730FA7C
:104270000700119B01331193EEE502231A0022403F
:10428000924623421FD001241C9B1A1D1C927A1CAB
:104290009146187843463A005946A8475346002BA2
:1042A00016D1119B013311934F46D5E5561C434659
:1042B00059462020B847230032005C1C9D42F5D8A7
:1042C0003D001700E0E701233A002F000A9DF4E7C4
:1042D0004A46A9460A9D06E0571C434659462020F7
:1042E000C84734003A00661CA542F5D84D469146B1
:1042F000D7E71C9B1A1D1C921B6899465346002B3E
:1043000000D1013B4E4601E0013613003278002A0D
:1043100002D05A1E002BF7D14B46F21A109280237E
:10432000DB0026001E401C4203D0524501D95346F3
:10433000109302231A0022400B92234205D03A0028
:1043400037004C46A946554620E03A00109B5F4690
:10435000B3462E0006E0551C434639002020B047E6
:1043600023002A005C1C0A999942F4D835005E4665
:10437000BB46109437004C46A946554606E01D0042
:104380000134561C43465946C8473200207800285D
:1043900004D0002FF4D06B1E002DF0D117004D4635
:1043A0000B9B002B03D1119B0133119354E50A9F02
:1043B000109B06E0561C434659462020A847230080
:1043C00032005C1C9F42F5D81700ECE721231C4308
:1043D0001C9B1A1D1C921B680093059408230493D0
:1043E00053460393102302930023019343463A005C
:1043F00059462800FFF79CF80700119B01331193E1
:104400002AE57C1C43463A0059462520A847119BC3
:104410000133119327001FE57C1C43463A0059469F
:10442000A847119B01331193270015E50A4B9A46C3
:1044300010E5AA46474502D343465A1E00E03A001B
:10444000434659460020D047380013B0F0BCBB4665
:10445000B246A946A046F0BD3D3300100EB410B5DB
:1044600085B0010007AC08CC0394012200945242AD
:104470000348FFF7E1FC05B010BC08BC03B01847C7
:104480003533001000B585B00290039101210093EF
:1044900013004A4202A90248FFF7CEFC05B000BD56
:1044A0003F33001001480421014B1847B00200209F
:1044B000D544001010B5010018231B881422108861
:1044C000984710BD10B5010018231B8816221088CC
:1044D000984710BDF0B5C64600B507000E00002590
:1044E0000123984600E00135B5420AD2AC003C19E0
:1044F0002068FFF7DFFF20600028F4D100239846F2
:10450000F1E7404680BCB846F0BD0000124A936F08
:104510009B0815D29066D166002905D0FFE7FFE71A
:10452000FFE7516F106F704704B580210906C2176D
:104530005140002800D0C84301F026FD002104BDF1
:10454000F0B5146E556E576F166FFFF7E3FF1466E4
:10455000556657671667F0BD000000D0114A936F8B
:104560009B0813D210665166002905D0FFE7FFE7CC
:10457000FFE7516F106F704704B5002801D000208D
:10458000C04301F001FD002104BDC046F0B5146E2A
:10459000556E576F166FFFF7E5FF14665566576740
:1045A0001667F0BD000000D094464A4A926F920808
:1045B000624601D228E0C046F0B5464E346E756EB4
:1045C000776F366F00F020F89446424A14665566BD
:1045D000576716676246F0BD94463E4A926F92084E
:1045E000624601D254E0C046F0B53A4E346E756E64
:1045F000776F366F00F04CF89446364A146655666D
:10460000576716676246F0BD002B24DB11D00029E6
:104610003EDA00B5C943404200D1013100F038F81C
:10462000C943404200D10131DB43524200D1013342
:1046300000BD002AEBD1002801D1002905D00020BF
:10464000C90FC90701D1C043410800B501F094FC6E
:104650000022002300BD00B500290ADBDB435242E3
:1046600000D1013300F014F8C943404200D10131B8
:1046700000BDC943404200D10131DB43524200D169
:10468000013300F005F8DB43524200D1013300BD95
:10469000002923D1002B18D1002A0CD0BC460D4F85
:1046A00038667A6600210023FFE7FFE7FFE77A6FAD
:1046B000386F67467047002801D00748010000B5F1
:1046C00001F05AFC0022002300BD02000B00002074
:1046D00000217047000000D0FFFFFFFF002B00D03B
:1046E000BFE0130C28D1002AE7D080B4114F3966FF
:1046F0007A66FFE7FFE730B4040C7B6F396F1B0469
:1047000023433B667A66FFE7FFE7FFE7C04684B2D4
:104710007B6F3D6F1B0423433B667A66FFE7FFE731
:10472000C04600232C042D0C7A6F386F00196941A4
:10473000B0BC7047000000D0F0B594460025140EC0
:1047400001D112020835140F01D112010435940F62
:1047500001D192000235D40F01D152000135D40BA2
:104760000134254F7C66254C3C660E0C93B2FFE766
:10477000FFE7FFE73C6F6643360C7703BE467343A3
:10478000DF0B5B04C01AB941130C7343DB18C91A61
:10479000CE086643360CB64493B273431F0F1B0119
:1047A000C01AB941130C73431F0B1B05C01AB94142
:1047B000860D8F023E436643360C092D24DB520AD8
:1047C0007243801A7703460A6643360C16235B1B36
:1047D000DE40DF40BF1964466643821B70460435E5
:1047E00006330100D940A840C01900D30131A242CC
:1047F00006D20023F0BD0000000000D0FFFFFFFF45
:10480000121B0130F3D3F1E709277F1BFE406446FA
:10481000A2B27243801A00D20139220C7243130CE7
:104820001204821A99410B007046043513370100B7
:10483000F940A840801900D30131002B02D1A242D7
:104840000AD2F0BD013000D30131121BFAD2013B74
:10485000F8D1A24200D2F0BD013000D30131121BC9
:10486000F7E7F0B51C0C00D080E00CB400251C0A62
:1048700004D11B02160E3343120208351C0B04D15F
:104880001B01160F3343120104359C0B04D19B000E
:10489000960F334392000235DC0B02D192185B4134
:1048A00001351C00971864410134464F7C66464C24
:1048B0003C660E0CFFE7FFE7FFE7C0463C6F664330
:1048C000360C7703BE4697B27743C01B00D201393E
:1048D000C01B00D201399FB27743C91BC91B170CFB
:1048E00077437E04FF0B801BB941CE086643360C2C
:1048F0000C2D33DBB644120B1F053A431B0B97B24A
:104900007743C01B00D201399FB27743C91B170CF4
:1049100077433E043F0C801BB941860D8F023E4316
:10492000664329277F1BFE400C3D7746AF40BF19E9
:1049300030BCA2B2ABB272437343801A9941220CCD
:104940007243130C1204801A994102000B000137C4
:10495000001BA941F9D2781E0021F0BD0C277F1B56
:10496000FE4077467F0BAF40FF19E0E700245D1C57
:1049700007D0144F7D663966FFE7FFE7FFE7FFE7E3
:104980003C6F95B29EB265436643401BB141150C26
:104990001E0C6543664336042F0C3E432D04401B1A
:1049A000B141994204D202000B0020000021F0BD69
:1049B00001D19042F7D3801A994101349942F2D340
:1049C000F6E70000000000D0FFFFFFFF4840414035
:1049D000484018B4134B5B68019308BD18B4114BE1
:1049E0001B68019308BD94460F4A926F920805D246
:1049F000624618B40B4BDB68019308BD0A4AF0B558
:104A0000146E556E576F166F6246FFF7F2FF064A37
:104A10001466556657671667F0BD18B4014B9B685E
:104A2000019308BDB00D0020000000D0FFB550403C
:104A30004240504059404B40594000E0FFB5154FAF
:104A40004C00640D03D0BC4204D10C0314D80020E8
:104A5000090D09055C00640D03D0BC4204D11C03A0
:104A60000AD800221B0D1B0501264B4009D44B40E0
:104A700003D58B4200D18242FFBD9942FCD19042C6
:104A8000FFBD0B43DB1803431343F5D0C94349185B
:104A9000FFBD0000FF07000000B5FFF7CFFF80411A
:104AA00000BDC04600B5FFF7C9FF01D9002000BD19
:104AB000012000BD00B5FFF7B9FF01D9002000BDFE
:104AC000012000BD00B5FFF7B1FF804100BD01200E
:104AD00040054A00121804D85A00121801D80020C4
:104AE0007047012070470020704700000021002817
:104AF00005D17047C1174840401AFAD0C90713B50D
:104B0000064B1B6898470CBC441CA2401005120BB6
:104B10000349091B09051943114310BDB00E0020BC
:104B20001F04000010B54C00620D8023D218DB007A
:104B3000D21A5B057E2A10DD9E3A13DACC170903E0
:104B4000490819435242D140640001341532202AE9
:104B500005DAD0400843604310BD002010BD084670
:104B6000604310BDC80FC018013810BD18B4024B07
:104B70005B6A019308BD0000B00D002010B501482C
:104B8000FEF7C0FBA874001070B513231C78012C2D
:104B900014D0012C14DC022C02DC1F4A1F4B9A6437
:104BA0001F48FFF787FC1F4B186070BD99001E4817
:104BB0001A4A885001331F2BF8D9EAE70023FAE795
:104BC0001A48FFF77FFC05001948FFF77BFC023805
:104BD00003789B007F2B19DD802229000F4800F00D
:104BE000D7F8022CD7D1134B1A88B5231B029A424F
:104BF00009D1114B1A88114B9A4204D1104B1A88D3
:104C0000104B9A42C7D00020FEF77CFB0E4B0F4A98
:104C100032210F48FEF7DCFA554C0010B00D002091
:104C20004C330000B00E00207D4B001053440000B8
:104C30005346000054380000D838000049460000B0
:104C40009C38000059460000C074001088750010A0
:104C50002075001007B56046002800D100BE01880D
:104C60000A0A0230DF2AFAD1C9B2820804D30288C4
:104C700040880004104300E00068024A505003904E
:104C800007BD0000B00D002051434343C9188C46B6
:104C9000110C83B24B4310B4040C614392B280B246
:104CA000504362431C041B0C001910BC59411304EF
:104CB000120CC018514161447047000010B5014802
:104CC000FEF720FB1463001070B513231E781848FC
:104CD000FFF7F8FB0500012E11D0012E09DDAB1EF8
:104CE0001B789B007F2B1DDD80222900114800F0DE
:104CF0004FF81148FFF7DEFB104B186070BD5422CF
:104D000001000C4800F044F8002300E001331F2BA1
:104D1000E3D89A00074C1259002AF7D19A000848A4
:104D20001051F3E7074B084A42210848FEF750FAB2
:104D300053460000B40E00204C330000B00E00209B
:104D4000BD4C00109C75001034760010D07500101A
:104D500010B50C0000F060FC002804D00419034BCF
:104D60009C4200D810BD0248FEF7CCFA0000042097
:104D70004876001001480421014B1847C00200206A
:104D8000D5440010014B1B6818470000C0020020EA
:104D9000014B5B6818470000C002002010B50300FB
:104DA000080011001B68984710BD0000F8B5070007
:104DB0000D001600437D002B02D0002400200CE0E3
:104DC00003681100280098472DE03B7D10E0022188
:104DD00015483B689847601C0134B44214DA002C33
:104DE000F3DD2B19013B1B780D3B5A425341DBB2DB
:104DF0002A5D0A2AF0D1002BEED1A042E7DA211A6F
:104E000028183B689847E2E7B04203DA311A2818BD
:104E10003B689847002E06DDAD19013D2B780D3B10
:104E20005A4253413B75F8BDD876001070B5050065
:104E30000368002B16D00C4B1C6805E0290004C940
:104E40002000FFF7B3FF2469002C09D02368002B52
:104E5000F9D0064B1B68002BF0D0A342F3D1EDE74D
:104E600000232B6070BDC046740D00208C0D002007
:104E700070B505000C000B68802B05D021684B1C19
:104E800023606418257170BD0800FFF7CFFFF5E7B8
:104E900010B5FDF755FB02000B1E0BDB0D48002182
:104EA00012184B41002B0BDB002B0DDB0A4801F0E5
:104EB00073F810BD094B0A4A3F210A48FEF788F9EA
:104EC00001225242084BEFE7044B054A3F210548B7
:104ED000FEF77EF940420F00300B0020FC68001006
:104EE000C076001018690010FFFFFF7F10B5024860
:104EF00001F03AF810BDC046300B0020F0B5CE46A8
:104F0000474680B583B006000D0090461C00FFF7B1
:104F1000BFFF81466B1C05D0002C08D0194F1A4BDF
:104F20001C6807E0300000F0BBFE0500F4E7174FF7
:104F3000F5E72469002C17D02368002BF9D0144B17
:104F40001B68002B01D0A342F3D12A0031002000BE
:104F5000B8474346002BECD06B46D91D0A230B7093
:104F600001222000B847E4E74B46002B07D16B1E17
:104F70009D41E8B203B0C0BCB946B046F0BDFFF7F2
:104F8000B5FFF4E79D4D0010740D0020AD4D0010ED
:104F90008C0D0020094A01E010331A001368002B21
:104FA00008D08342F8D1002907D103691360002398
:104FB000036102E0002900D010607047740D0020EA
:104FC00010B5064B1C6801E098472469002C03D0FB
:104FD0006368002BF8D1F8E710BDC046740D0020BF
:104FE00070B5050000F05CFE040000230122010002
:104FF0002800FFF783FFFFF7E3FF200070BD0000EC
:1050000070B5A2B004000E00FFF742FF05000023B8
:1050100001933300220001A90848FFF733FA040086
:1050200001A8FFF703FFFFF7CBFF002D02D12000FF
:1050300022B070BDFFF75AFFF9E7C046714E00106D
:105040000FB400B583B004A901C90191FFF7D8FFDF
:1050500003B008BC04B0184710B500F0F9F80120FF
:1050600010BD0000F0B583B005000E0000240FE075
:105070006B46D91D0D230B700020002816D19369B3
:105080009B06FCD40B78136001300131F5E7013445
:10509000B44219DA0D4B1A682F5D0D4BD3185942E3
:1050A0004B415B000B495B5EBB42E1D06B46D91DB7
:1050B0000F7000200028EAD193699B06FCD40B787E
:1050C000136001300131F5E703B0F0BDD00F0020CF
:1050D0000080FCBFCC0F0020F0B583B006000F00AD
:1050E000002504E06B4607331B782B702500BD427A
:1050F00015DA174B1A6893691024210019401C42D5
:105100000DD16C1C75196B46D81D0029EAD1936925
:10511000DB06FCD41368037001310130F5E70D4B59
:105120001B68002B0CD00A4B1A68502393631100A4
:105130003431536B38221A4080235B010B431A60D1
:10514000002D02D0280003B0F0BD033DFAE7C046B1
:10515000D00F0020BC0C002010B5064B1B68002BA4
:1051600006D0054A126800219163044A10689847E6
:1051700010BDC046BC0C0020D00F0020C00C002089
:1051800070B504000E001C4B1B681C4A9818424264
:10519000504114300500002C03D0194A1268002A2F
:1051A00006D0002C19D0164B1C60164B1E6070BD2B
:1051B0001549FCF701F901212800FCF7EDF80E4B29
:1051C0001A685023936311003431536B38221A400C
:1051D00080235B010B431A60E5E7094A1268002A45
:1051E000E1D000229A6300212800FCF7D5F8064997
:1051F0002800FCF725FAD6E7D00F00200080FCBF7E
:10520000BC0C0020C00C00205951001070B50D00DE
:105210001C000D4B1860002A0BDA002C0EDA0A4B2A
:1052200018682900FDF7A8FD01210848FFF7B2FE24
:1052300070BD02211000FBF7EFFEEEE70221200017
:10524000FBF7EAFEEBE7C046D00F0020D0020020BB
:1052500010B5064B1B78064B1B78E1210123002279
:1052600049020448FFF7D2FF10BDC046C8770010BE
:10527000CC77001000400340F0B5DE4657464E465E
:105280004546E0B585B0060010001C0002930EAB49
:105290001A7803920F9D109F33680022DA663368F4
:1052A000596033680132DA66A246002398469B466D
:1052B00000242BE03279002A31D001222FE003991B
:1052C000002901D000212EE001212CE03800A84760
:1052D00003000443E4B2002B06D13268526BD206BD
:1052E00002D4002DF2D1F6E7002B09D132688021DB
:1052F00051588B4600291FD1002C2FD1C1451ED0FB
:10530000002C33D101229446E0440198D0452DDA97
:10531000029A013A91464246002ACBD000229202DC
:10532000C145CCD0002149020A43411C01910078BB
:10533000316802430A61D4E7526D01240EE0039AFA
:10534000002ADDD10AE03800A84703000443E4B294
:10535000002B06D13268526B920502D4002DF2D197
:10536000F6E7002BCCD13268126EC9E7002C09D0C9
:10537000002B15D15B46002B16D0DB0718D45B46FB
:105380001B0709D5039B3371404605B0F0BCBB46F3
:10539000B246A946A046F0BD02235B429846F1E71B
:1053A00001235B429846EDE702235B429846E9E71A
:1053B00002235B429846E5E7F0B5DE4657464E4687
:1053C0004546E0B583B0050091469A460CAB1B7884
:1053D00001930D9E0E9F03680022DA6603685960F0
:1053E00003680132DA66D3460023984600242AE097
:1053F0002979002933D0012131E00198002801D01A
:10540000002030E001202EE03800B04703000443C4
:10541000E4B2002C0DD12A68926F002A09D12A68C3
:1054200080215158546D621E9441E4B2002EEBD19C
:10543000EFE7002C1ED12A68126949460A70012242
:105440009446E044E144D84514DA5246541E2A6892
:10545000516F1029FBD041460029C9D00021890293
:105460004445CAD00020400208438021490001433E
:105470001161D4E7002C04D0002B0CD001235B4237
:105480009846019B2B71404603B0F0BCBB46B24628
:10549000A946A046F0BD02235B429846F1E7000012
:1054A000F0B5D6464F464646C0B505000C0005206F
:1054B000FDF7B4FD0600600880192100FFF74EF8E3
:1054C000070043009946814405214846FFF746F806
:1054D00080463B1A9A46284B9C4224D8700080197B
:1054E0002649FFF73BF8441C4346023BA34221D325
:1054F0002B680022DA6629680A68042353400622D2
:105500001A4080235B010B431A602B685246DA6114
:105510002B6842461A624B464F2B11D95021484600
:10552000FFF71CF80DE0700080191549FFF716F819
:10553000441CD9E7134B144A5F211448FDF748FE79
:105540000120A0232A68D0502A6811007C31D06F36
:1055500044402404240C80235B010B431C602B6813
:105560000122DA6639003000FEF7F8FFE0BCBA46E7
:10557000B146A846F0BDC0463F420F008096980055
:1055800040787D011C770010987700103C77001060
:1055900010B5114B98421CD01022104B1A60104BC2
:1055A0001A60104B9B6814009C43231EF9D10471B0
:1055B0000268D46602686624FF3414600268D3630C
:1055C00002689363883303220468E250FFF768FFA0
:1055D00010BD0822E1E7C046E802002000E00040DC
:1055E00000F0004000C0004030B585B008AC257820
:1055F0000024029401940095FFF73EFE05B030BDF3
:1056000030B585B008AC257800240294019400954B
:10561000FFF7D2FE05B030BD030010B50A00034904
:105620000868190000F004F810BDC046F002002020
:1056300070B50B0C0024150C002B28D1002D37D190
:105640008BB291B2594300F047F8051E19D0030000
:10565000083B5A6803239A43043A242A13D80300C8
:10566000132A0AD90460446008331B2A05D98460D0
:10567000C460242A25D00300103300221A605A6027
:105680009A60280070BD0021FFF77CFBF9E7002D30
:1056900011D1151C89B292B24A43ADB29BB26B4391
:1056A000110C5B18190C06D1190492B21143CAE708
:1056B0002B1C0D1CEEE700F009F80C2300250360FD
:1056C000DFE70300046118334461D6E7014B186833
:1056D0007047C046F0020020F0B54E464546DE4613
:1056E0005746E0B50D000B35060083B0162D22D8C5
:1056F000102900D9B2E000F0B1FA102518230220D9
:10570000CC4FFB181A005C68083A944200D1B5E00F
:10571000032362689A431300E268A168CA6091603B
:105720000122E318596830000A435A6000F09EFADB
:105730002000083095E007239D4300D58EE0A94264
:1057400000D98BE000F08AFAFC235B009D4200D276
:10575000A7E1680A00D18BE0042800D97AE1382358
:105760009846A80980443930C100B24F79184C6876
:105770000839A1420ED003239C4604E0002ACBDA6C
:10578000E468A14206D06246636893435A1B0F2A1D
:10579000F4DD40463A003C690832944200D178E09A
:1057A00003236168994389460B00491B0F2900DDDB
:1057B0007BE17A613A610029B2DA80229200914558
:1057C00000D30FE15909DA0801238B40D200796830
:1057D000D2190B4391687B60E260A1609460CC6059
:1057E000012182109140994259D80B4205D10322E0
:1057F0009043490004300B42FBD003239846C3007A
:105800009946B944CC4682466346DC68A44507D134
:105810002CE1002A00DB35E1E468A44500D125E154
:105820004246636893435A1B0F2AF2DD01208046EB
:10583000611905436560A068E5680837C560A86020
:1058400040461043F960B9604860CF6030008F6017
:10585000E25000F00BFA2000083002E00C23002098
:10586000336003B0F0BCBB46B246A946A046F0BDCB
:1058700080213F2340209846890076E7DC6802308B
:10588000A34200D044E73A003C690832944200D079
:1058900086E701217B68821091409942A5D90323B4
:1058A000BC6862689A439146954203D8531B0F2BFC
:1058B00000DD89E023004B445F4A01935F4B934630
:1058C0001B681268EB18013200D13DE15C4A944636
:1058D00063441B0B1B0300933000009900F0CEF9CA
:1058E00003008046013300D1FAE0019B834200D9D6
:1058F000F4E0544B00981A009A461268030094464C
:10590000514663440B6001991A00414500D151E1B1
:105910005B461B68013300D156E1434601995B1A8F
:105920009A1853461A600723424641461A4001928C
:10593000194200D112E108239846881A424B009977
:10594000804441449B1A5B1A1B051B0D00913000DB
:1059500019009B4600F092F9431C00D150E14346E8
:10596000C01A03005B440093534652461B68012152
:105970005B44136042464046BA60009A0A43426064
:10598000BC4200D124E14A460F2A00D822E1072078
:105990000C3A824360680140052011436160A11800
:1059A000486088600F2A00D935E142464446526873
:1059B00026490868984200D20B6025490868984239
:1059C00000D38FE00B608DE00122290013431143C7
:1059D000651961603000BD606B6000F047F9200020
:1059E00008303EE75A0A042A72D9142A00D9C5E0C1
:1059F00011005C325B31D20008235B429C46BA182E
:105A0000944463469A6803239846944500D19EE0E7
:105A1000434651689943494502D992689445F7D164
:105A2000D3689C467B686146A260E1608C60D4606C
:105A3000D6E6C04620070020280B0020A00C00203E
:105A40000F100000700C002008100000980C0020BF
:105A50009C0C0020142852D9542800D996E06E23BB
:105A60009846280B80446F30C1007EE608239B4691
:105A7000073BDC449B46DA4443465246134200D07F
:105A8000C2E64CE00122E318596830000A435A602C
:105A9000E368A268D3609A6000F0E8F8200008305C
:105AA000DFE62B00E80808332AE6012360191D43CE
:105AB000656078613861C26082601A004B460A43B3
:105AC00042603000E15000F0D1F820000830C8E614
:105AD0009A09110039323831D2008DE7BC4260D0CA
